{
  "contractName": "Lend",
  "abi": [
    {
      "inputs": [
        {
          "internalType": "address",
          "name": "token",
          "type": "address"
        }
      ],
      "name": "addAllowedTokens",
      "outputs": [],
      "stateMutability": "nonpayable",
      "type": "function"
    },
    {
      "inputs": [
        {
          "internalType": "address",
          "name": "_rupyaTokenAddress",
          "type": "address"
        }
      ],
      "stateMutability": "nonpayable",
      "type": "constructor"
    },
    {
      "anonymous": false,
      "inputs": [
        {
          "indexed": true,
          "internalType": "bytes32",
          "name": "id",
          "type": "bytes32"
        }
      ],
      "name": "ChainlinkCancelled",
      "type": "event"
    },
    {
      "anonymous": false,
      "inputs": [
        {
          "indexed": true,
          "internalType": "bytes32",
          "name": "id",
          "type": "bytes32"
        }
      ],
      "name": "ChainlinkFulfilled",
      "type": "event"
    },
    {
      "anonymous": false,
      "inputs": [
        {
          "indexed": true,
          "internalType": "bytes32",
          "name": "id",
          "type": "bytes32"
        }
      ],
      "name": "ChainlinkRequested",
      "type": "event"
    },
    {
      "inputs": [],
      "name": "issueTokens",
      "outputs": [],
      "stateMutability": "nonpayable",
      "type": "function"
    },
    {
      "inputs": [
        {
          "internalType": "uint256",
          "name": "_amount",
          "type": "uint256"
        },
        {
          "internalType": "address",
          "name": "token",
          "type": "address"
        }
      ],
      "name": "lendTokens",
      "outputs": [],
      "stateMutability": "nonpayable",
      "type": "function"
    },
    {
      "anonymous": false,
      "inputs": [
        {
          "indexed": true,
          "internalType": "address",
          "name": "previousOwner",
          "type": "address"
        },
        {
          "indexed": true,
          "internalType": "address",
          "name": "newOwner",
          "type": "address"
        }
      ],
      "name": "OwnershipTransferred",
      "type": "event"
    },
    {
      "inputs": [],
      "name": "renounceOwnership",
      "outputs": [],
      "stateMutability": "nonpayable",
      "type": "function"
    },
    {
      "inputs": [
        {
          "internalType": "address",
          "name": "token",
          "type": "address"
        },
        {
          "internalType": "address",
          "name": "priceFeed",
          "type": "address"
        }
      ],
      "name": "setPriceFeedContract",
      "outputs": [],
      "stateMutability": "nonpayable",
      "type": "function"
    },
    {
      "inputs": [
        {
          "internalType": "address",
          "name": "newOwner",
          "type": "address"
        }
      ],
      "name": "transferOwnership",
      "outputs": [],
      "stateMutability": "nonpayable",
      "type": "function"
    },
    {
      "inputs": [
        {
          "internalType": "uint256",
          "name": "_amount",
          "type": "uint256"
        },
        {
          "internalType": "address",
          "name": "token",
          "type": "address"
        }
      ],
      "name": "withdrawTokens",
      "outputs": [],
      "stateMutability": "nonpayable",
      "type": "function"
    },
    {
      "inputs": [
        {
          "internalType": "address",
          "name": "token",
          "type": "address"
        }
      ],
      "name": "getTokenEthPrice",
      "outputs": [
        {
          "internalType": "uint256",
          "name": "",
          "type": "uint256"
        }
      ],
      "stateMutability": "view",
      "type": "function"
    },
    {
      "inputs": [
        {
          "internalType": "address",
          "name": "user",
          "type": "address"
        },
        {
          "internalType": "address",
          "name": "token",
          "type": "address"
        }
      ],
      "name": "getUserLendingBalanceEthValue",
      "outputs": [
        {
          "internalType": "uint256",
          "name": "",
          "type": "uint256"
        }
      ],
      "stateMutability": "view",
      "type": "function"
    },
    {
      "inputs": [
        {
          "internalType": "address",
          "name": "user",
          "type": "address"
        },
        {
          "internalType": "address",
          "name": "token",
          "type": "address"
        }
      ],
      "name": "getUserTokenValue",
      "outputs": [
        {
          "internalType": "uint256",
          "name": "",
          "type": "uint256"
        }
      ],
      "stateMutability": "view",
      "type": "function"
    },
    {
      "inputs": [
        {
          "internalType": "address",
          "name": "user",
          "type": "address"
        }
      ],
      "name": "getUserTotalValue",
      "outputs": [
        {
          "internalType": "uint256",
          "name": "",
          "type": "uint256"
        }
      ],
      "stateMutability": "view",
      "type": "function"
    },
    {
      "inputs": [
        {
          "internalType": "uint256",
          "name": "",
          "type": "uint256"
        }
      ],
      "name": "lenders",
      "outputs": [
        {
          "internalType": "address",
          "name": "",
          "type": "address"
        }
      ],
      "stateMutability": "view",
      "type": "function"
    },
    {
      "inputs": [
        {
          "internalType": "address",
          "name": "",
          "type": "address"
        },
        {
          "internalType": "address",
          "name": "",
          "type": "address"
        }
      ],
      "name": "lendingBalance",
      "outputs": [
        {
          "internalType": "uint256",
          "name": "",
          "type": "uint256"
        }
      ],
      "stateMutability": "view",
      "type": "function"
    },
    {
      "inputs": [],
      "name": "owner",
      "outputs": [
        {
          "internalType": "address",
          "name": "",
          "type": "address"
        }
      ],
      "stateMutability": "view",
      "type": "function"
    },
    {
      "inputs": [],
      "name": "rupyaToken",
      "outputs": [
        {
          "internalType": "contract IERC20",
          "name": "",
          "type": "address"
        }
      ],
      "stateMutability": "view",
      "type": "function"
    },
    {
      "inputs": [
        {
          "internalType": "address",
          "name": "token",
          "type": "address"
        }
      ],
      "name": "tokenIsAllowed",
      "outputs": [
        {
          "internalType": "bool",
          "name": "",
          "type": "bool"
        }
      ],
      "stateMutability": "view",
      "type": "function"
    },
    {
      "inputs": [
        {
          "internalType": "address",
          "name": "",
          "type": "address"
        }
      ],
      "name": "tokenPriceFeedMapping",
      "outputs": [
        {
          "internalType": "address",
          "name": "",
          "type": "address"
        }
      ],
      "stateMutability": "view",
      "type": "function"
    },
    {
      "inputs": [
        {
          "internalType": "address",
          "name": "",
          "type": "address"
        }
      ],
      "name": "uniqueTokensLent",
      "outputs": [
        {
          "internalType": "uint256",
          "name": "",
          "type": "uint256"
        }
      ],
      "stateMutability": "view",
      "type": "function"
    }
  ],
  "bytecode": "0x608060405260016004553480156200001657600080fd5b5060405162001e0238038062001e0283398181016040528101906200003c9190620001dc565b6200005c62000050620000a460201b60201c565b620000ac60201b60201c565b80600c60006101000a81548173ffffffffffffffffffffffffffffffffffffffff021916908373ffffffffffffffffffffffffffffffffffffffff160217905550506200020e565b600033905090565b6000600660009054906101000a900473ffffffffffffffffffffffffffffffffffffffff16905081600660006101000a81548173ffffffffffffffffffffffffffffffffffffffff021916908373ffffffffffffffffffffffffffffffffffffffff1602179055508173ffffffffffffffffffffffffffffffffffffffff168173ffffffffffffffffffffffffffffffffffffffff167f8be0079c531659141344cd1fd0a4f28419497f9722a3daafe3b4186f6b6457e060405160405180910390a35050565b600080fd5b600073ffffffffffffffffffffffffffffffffffffffff82169050919050565b6000620001a48262000177565b9050919050565b620001b68162000197565b8114620001c257600080fd5b50565b600081519050620001d681620001ab565b92915050565b600060208284031215620001f557620001f462000172565b5b60006200020584828501620001c5565b91505092915050565b611be4806200021e6000396000f3fe608060405234801561001057600080fd5b506004361061010a5760003560e01c8063877dd39d116100a2578063af3f5e2211610071578063af3f5e22146102a3578063dd5b8467146102d3578063df00018d14610303578063f2fde38b14610333578063fcce65c01461034f5761010a565b8063877dd39d1461021b5780638da5cb5b14610237578063929eea2114610255578063996c1385146102855761010a565b806346817821116100de57806346817821146101bb57806349df728c146101eb57806360ab585214610207578063715018a6146102115761010a565b8062e73f821461010f578063171e44ea1461013f5780631dd370641461015b57806327927b3e1461018b575b600080fd5b61012960048036038101906101249190611407565b61036b565b6040516101369190611460565b60405180910390f35b6101596004803603810190610154919061147b565b610468565b005b61017560048036038101906101709190611407565b61054a565b6040516101829190611460565b60405180910390f35b6101a560048036038101906101a0919061147b565b61056f565b6040516101b291906114b7565b60405180910390f35b6101d560048036038101906101d0919061147b565b6105a2565b6040516101e29190611460565b60405180910390f35b6102056004803603810190610200919061147b565b6105ba565b005b61020f610812565b005b6102196109a1565b005b61023560048036038101906102309190611407565b610a29565b005b61023f610b27565b60405161024c91906114b7565b60405180910390f35b61026f600480360381019061026a91906114fe565b610b51565b60405161027c91906114b7565b60405180910390f35b61028d610b90565b60405161029a919061158a565b60405180910390f35b6102bd60048036038101906102b8919061147b565b610bb6565b6040516102ca9190611460565b60405180910390f35b6102ed60048036038101906102e8919061147b565b610c88565b6040516102fa91906115c0565b60405180910390f35b61031d6004803603810190610318919061147b565b610d37565b60405161032a9190611460565b60405180910390f35b61034d6004803603810190610348919061147b565b610e31565b005b610369600480360381019061036491906115db565b610f29565b005b600080600960008573ffffffffffffffffffffffffffffffffffffffff1673ffffffffffffffffffffffffffffffffffffffff16815260200190815260200160002054116103bc5760009050610462565b670de0b6b3a76400006103ce83610d37565b600860008573ffffffffffffffffffffffffffffffffffffffff1673ffffffffffffffffffffffffffffffffffffffff16815260200190815260200160002060008673ffffffffffffffffffffffffffffffffffffffff1673ffffffffffffffffffffffffffffffffffffffff16815260200190815260200160002054610455919061164a565b61045f91906116d3565b90505b92915050565b6104706111be565b73ffffffffffffffffffffffffffffffffffffffff1661048e610b27565b73ffffffffffffffffffffffffffffffffffffffff16146104e4576040517f08c379a00000000000000000000000000000000000000000000000000000000081526004016104db90611761565b60405180910390fd5b600b819080600181540180825580915050600190039060005260206000200160009091909190916101000a81548173ffffffffffffffffffffffffffffffffffffffff021916908373ffffffffffffffffffffffffffffffffffffffff16021790555050565b6008602052816000526040600020602052806000526040600020600091509150505481565b600a6020528060005260406000206000915054906101000a900473ffffffffffffffffffffffffffffffffffffffff1681565b60096020528060005260406000206000915090505481565b6000600860008373ffffffffffffffffffffffffffffffffffffffff1673ffffffffffffffffffffffffffffffffffffffff16815260200190815260200160002060003373ffffffffffffffffffffffffffffffffffffffff1673ffffffffffffffffffffffffffffffffffffffff1681526020019081526020016000205490506000811161067e576040517f08c379a0000000000000000000000000000000000000000000000000000000008152600401610675906117cd565b60405180910390fd5b8173ffffffffffffffffffffffffffffffffffffffff1663a9059cbb33836040518363ffffffff1660e01b81526004016106b99291906117ed565b6020604051808303816000875af11580156106d8573d6000803e3d6000fd5b505050506040513d601f19601f820116820180604052508101906106fc9190611842565b506000600860008473ffffffffffffffffffffffffffffffffffffffff1673ffffffffffffffffffffffffffffffffffffffff16815260200190815260200160002060003373ffffffffffffffffffffffffffffffffffffffff1673ffffffffffffffffffffffffffffffffffffffff168152602001908152602001600020819055506001600960003373ffffffffffffffffffffffffffffffffffffffff1673ffffffffffffffffffffffffffffffffffffffff168152602001908152602001600020546107cb919061186f565b600960003373ffffffffffffffffffffffffffffffffffffffff1673ffffffffffffffffffffffffffffffffffffffff168152602001908152602001600020819055505050565b61081a6111be565b73ffffffffffffffffffffffffffffffffffffffff16610838610b27565b73ffffffffffffffffffffffffffffffffffffffff161461088e576040517f08c379a000000000000000000000000000000000000000000000000000000000815260040161088590611761565b60405180910390fd5b60005b60078054905081101561099e576000600782815481106108b4576108b36118a3565b5b9060005260206000200160009054906101000a900473ffffffffffffffffffffffffffffffffffffffff169050600c60009054906101000a900473ffffffffffffffffffffffffffffffffffffffff1673ffffffffffffffffffffffffffffffffffffffff1663a9059cbb8261092984610bb6565b6040518363ffffffff1660e01b81526004016109469291906117ed565b6020604051808303816000875af1158015610965573d6000803e3d6000fd5b505050506040513d601f19601f820116820180604052508101906109899190611842565b50508080610996906118d2565b915050610891565b50565b6109a96111be565b73ffffffffffffffffffffffffffffffffffffffff166109c7610b27565b73ffffffffffffffffffffffffffffffffffffffff1614610a1d576040517f08c379a0000000000000000000000000000000000000000000000000000000008152600401610a1490611761565b60405180910390fd5b610a2760006111c6565b565b610a316111be565b73ffffffffffffffffffffffffffffffffffffffff16610a4f610b27565b73ffffffffffffffffffffffffffffffffffffffff1614610aa5576040517f08c379a0000000000000000000000000000000000000000000000000000000008152600401610a9c90611761565b60405180910390fd5b80600a60008473ffffffffffffffffffffffffffffffffffffffff1673ffffffffffffffffffffffffffffffffffffffff16815260200190815260200160002060006101000a81548173ffffffffffffffffffffffffffffffffffffffff021916908373ffffffffffffffffffffffffffffffffffffffff1602179055505050565b6000600660009054906101000a900473ffffffffffffffffffffffffffffffffffffffff16905090565b60078181548110610b6157600080fd5b906000526020600020016000915054906101000a900473ffffffffffffffffffffffffffffffffffffffff1681565b600c60009054906101000a900473ffffffffffffffffffffffffffffffffffffffff1681565b600080600090506000600960008573ffffffffffffffffffffffffffffffffffffffff1673ffffffffffffffffffffffffffffffffffffffff168152602001908152602001600020541115610c7f5760005b600b80549050811015610c7d57610c5d84600b8381548110610c2d57610c2c6118a3565b5b9060005260206000200160009054906101000a900473ffffffffffffffffffffffffffffffffffffffff1661036b565b82610c68919061191b565b91508080610c75906118d2565b915050610c08565b505b80915050919050565b600080600090505b600b80549050811015610d2c578273ffffffffffffffffffffffffffffffffffffffff16600b8281548110610cc857610cc76118a3565b5b9060005260206000200160009054906101000a900473ffffffffffffffffffffffffffffffffffffffff1673ffffffffffffffffffffffffffffffffffffffff161415610d19576001915050610d32565b8080610d24906118d2565b915050610c90565b50600090505b919050565b600080600a60008473ffffffffffffffffffffffffffffffffffffffff1673ffffffffffffffffffffffffffffffffffffffff16815260200190815260200160002060009054906101000a900473ffffffffffffffffffffffffffffffffffffffff169050600081905060008060008060008573ffffffffffffffffffffffffffffffffffffffff1663feaf968c6040518163ffffffff1660e01b815260040160a060405180830381865afa158015610df4573d6000803e3d6000fd5b505050506040513d601f19601f82011682018060405250810190610e1891906119fe565b9450945094509450945083975050505050505050919050565b610e396111be565b73ffffffffffffffffffffffffffffffffffffffff16610e57610b27565b73ffffffffffffffffffffffffffffffffffffffff1614610ead576040517f08c379a0000000000000000000000000000000000000000000000000000000008152600401610ea490611761565b60405180910390fd5b600073ffffffffffffffffffffffffffffffffffffffff168173ffffffffffffffffffffffffffffffffffffffff161415610f1d576040517f08c379a0000000000000000000000000000000000000000000000000000000008152600401610f1490611aeb565b60405180910390fd5b610f26816111c6565b50565b60008211610f6c576040517f08c379a0000000000000000000000000000000000000000000000000000000008152600401610f6390611b57565b60405180910390fd5b610f7581610c88565b156111ba57610f84338261128c565b8073ffffffffffffffffffffffffffffffffffffffff166323b872dd3330856040518463ffffffff1660e01b8152600401610fc193929190611b77565b6020604051808303816000875af1158015610fe0573d6000803e3d6000fd5b505050506040513d601f19601f820116820180604052508101906110049190611842565b5081600860008373ffffffffffffffffffffffffffffffffffffffff1673ffffffffffffffffffffffffffffffffffffffff16815260200190815260200160002060003373ffffffffffffffffffffffffffffffffffffffff1673ffffffffffffffffffffffffffffffffffffffff1681526020019081526020016000205461108d919061191b565b600860008373ffffffffffffffffffffffffffffffffffffffff1673ffffffffffffffffffffffffffffffffffffffff16815260200190815260200160002060003373ffffffffffffffffffffffffffffffffffffffff1673ffffffffffffffffffffffffffffffffffffffff168152602001908152602001600020819055506001600960003373ffffffffffffffffffffffffffffffffffffffff1673ffffffffffffffffffffffffffffffffffffffff1681526020019081526020016000205414156111b9576007339080600181540180825580915050600190039060005260206000200160009091909190916101000a81548173ffffffffffffffffffffffffffffffffffffffff021916908373ffffffffffffffffffffffffffffffffffffffff1602179055505b5b5050565b600033905090565b6000600660009054906101000a900473ffffffffffffffffffffffffffffffffffffffff16905081600660006101000a81548173ffffffffffffffffffffffffffffffffffffffff021916908373ffffffffffffffffffffffffffffffffffffffff1602179055508173ffffffffffffffffffffffffffffffffffffffff168173ffffffffffffffffffffffffffffffffffffffff167f8be0079c531659141344cd1fd0a4f28419497f9722a3daafe3b4186f6b6457e060405160405180910390a35050565b6000600860008373ffffffffffffffffffffffffffffffffffffffff1673ffffffffffffffffffffffffffffffffffffffff16815260200190815260200160002060008473ffffffffffffffffffffffffffffffffffffffff1673ffffffffffffffffffffffffffffffffffffffff16815260200190815260200160002054116113a0576001600960008473ffffffffffffffffffffffffffffffffffffffff1673ffffffffffffffffffffffffffffffffffffffff1681526020019081526020016000205461135c919061191b565b600960008473ffffffffffffffffffffffffffffffffffffffff1673ffffffffffffffffffffffffffffffffffffffff168152602001908152602001600020819055505b5050565b600080fd5b600073ffffffffffffffffffffffffffffffffffffffff82169050919050565b60006113d4826113a9565b9050919050565b6113e4816113c9565b81146113ef57600080fd5b50565b600081359050611401816113db565b92915050565b6000806040838503121561141e5761141d6113a4565b5b600061142c858286016113f2565b925050602061143d858286016113f2565b9150509250929050565b6000819050919050565b61145a81611447565b82525050565b60006020820190506114756000830184611451565b92915050565b600060208284031215611491576114906113a4565b5b600061149f848285016113f2565b91505092915050565b6114b1816113c9565b82525050565b60006020820190506114cc60008301846114a8565b92915050565b6114db81611447565b81146114e657600080fd5b50565b6000813590506114f8816114d2565b92915050565b600060208284031215611514576115136113a4565b5b6000611522848285016114e9565b91505092915050565b6000819050919050565b600061155061154b611546846113a9565b61152b565b6113a9565b9050919050565b600061156282611535565b9050919050565b600061157482611557565b9050919050565b61158481611569565b82525050565b600060208201905061159f600083018461157b565b92915050565b60008115159050919050565b6115ba816115a5565b82525050565b60006020820190506115d560008301846115b1565b92915050565b600080604083850312156115f2576115f16113a4565b5b6000611600858286016114e9565b9250506020611611858286016113f2565b9150509250929050565b7f4e487b7100000000000000000000000000000000000000000000000000000000600052601160045260246000fd5b600061165582611447565b915061166083611447565b9250817fffffffffffffffffffffffffffffffffffffffffffffffffffffffffffffffff04831182151516156116995761169861161b565b5b828202905092915050565b7f4e487b7100000000000000000000000000000000000000000000000000000000600052601260045260246000fd5b60006116de82611447565b91506116e983611447565b9250826116f9576116f86116a4565b5b828204905092915050565b600082825260208201905092915050565b7f4f776e61626c653a2063616c6c6572206973206e6f7420746865206f776e6572600082015250565b600061174b602083611704565b915061175682611715565b602082019050919050565b6000602082019050818103600083015261177a8161173e565b9050919050565b7f7374616b696e672062616c616e63652063616e6e6f7420626520300000000000600082015250565b60006117b7601b83611704565b91506117c282611781565b602082019050919050565b600060208201905081810360008301526117e6816117aa565b9050919050565b600060408201905061180260008301856114a8565b61180f6020830184611451565b9392505050565b61181f816115a5565b811461182a57600080fd5b50565b60008151905061183c81611816565b92915050565b600060208284031215611858576118576113a4565b5b60006118668482850161182d565b91505092915050565b600061187a82611447565b915061188583611447565b9250828210156118985761189761161b565b5b828203905092915050565b7f4e487b7100000000000000000000000000000000000000000000000000000000600052603260045260246000fd5b60006118dd82611447565b91507fffffffffffffffffffffffffffffffffffffffffffffffffffffffffffffffff8214156119105761190f61161b565b5b600182019050919050565b600061192682611447565b915061193183611447565b9250827fffffffffffffffffffffffffffffffffffffffffffffffffffffffffffffffff038211156119665761196561161b565b5b828201905092915050565b600069ffffffffffffffffffff82169050919050565b61199081611971565b811461199b57600080fd5b50565b6000815190506119ad81611987565b92915050565b6000819050919050565b6119c6816119b3565b81146119d157600080fd5b50565b6000815190506119e3816119bd565b92915050565b6000815190506119f8816114d2565b92915050565b600080600080600060a08688031215611a1a57611a196113a4565b5b6000611a288882890161199e565b9550506020611a39888289016119d4565b9450506040611a4a888289016119e9565b9350506060611a5b888289016119e9565b9250506080611a6c8882890161199e565b9150509295509295909350565b7f4f776e61626c653a206e6577206f776e657220697320746865207a65726f206160008201527f6464726573730000000000000000000000000000000000000000000000000000602082015250565b6000611ad5602683611704565b9150611ae082611a79565b604082019050919050565b60006020820190508181036000830152611b0481611ac8565b9050919050565b7f616d6f756e742063616e6e6f7420626520300000000000000000000000000000600082015250565b6000611b41601283611704565b9150611b4c82611b0b565b602082019050919050565b60006020820190508181036000830152611b7081611b34565b9050919050565b6000606082019050611b8c60008301866114a8565b611b9960208301856114a8565b611ba66040830184611451565b94935050505056fea26469706673582212203e8b80ad05cab860e3e5e834452fda15fadb7bfa1ed66bd4fb3b6a2f766c153264736f6c634300080a0033",
  "immutableReferences": {},
  "source": "// SPDX-License-Identifier: MIT\npragma solidity ^0.8.0;\nimport \"@chainlink/contracts/src/v0.8/interfaces/AggregatorV3Interface.sol\";\nimport \"@chainlink/contracts/src/v0.8/ChainlinkClient.sol\";\nimport \"@openzeppelin/contracts/token/ERC20/IERC20.sol\";\nimport \"@openzeppelin/contracts/access/Ownable.sol\";\n\ncontract Lend is ChainlinkClient, Ownable {\n    address[] public lenders;\n\n    mapping(address => mapping(address => uint256)) public lendingBalance;\n    mapping(address => uint256) public uniqueTokensLent;\n    mapping(address => address) public tokenPriceFeedMapping;\n    address[] allowedTokens;\n\n    IERC20 public rupyaToken;\n\n    constructor(address _rupyaTokenAddress) {\n        rupyaToken = IERC20(_rupyaTokenAddress);\n    }\n\n    function addAllowedTokens(address token) public onlyOwner {\n        allowedTokens.push(token);\n    }\n\n    function setPriceFeedContract(address token, address priceFeed) public onlyOwner {\n        tokenPriceFeedMapping[token] = priceFeed;\n    }\n\n    function lendTokens(uint256 _amount, address token) public {\n        require(_amount > 0, \"amount cannot be 0\");\n        if (tokenIsAllowed(token)) {\n            updateUniqueTokensLent(msg.sender, token);\n            IERC20(token).transferFrom(msg.sender, address(this), _amount);\n            lendingBalance[token][msg.sender] =\n                lendingBalance[token][msg.sender] +\n                _amount;\n            if (uniqueTokensLent[msg.sender] == 1) {\n                lenders.push(msg.sender);\n            }\n        }\n    }\n\n    function withdrawTokens(address token) public {\n        uint256 balance = lendingBalance[token][msg.sender];\n        require(balance > 0, \"staking balance cannot be 0\");\n        IERC20(token).transfer(msg.sender, balance);\n        lendingBalance[token][msg.sender] = 0;\n        uniqueTokensLent[msg.sender] = uniqueTokensLent[msg.sender] - 1;\n    }\n\n    function getUserTotalValue(address user) public view returns (uint256) {\n        uint256 totalValue = 0;\n        if (uniqueTokensLent[user] > 0) {\n            for (\n                uint256 allowedTokensIndex = 0;\n                allowedTokensIndex < allowedTokens.length;\n                allowedTokensIndex++\n            ) {\n                totalValue =\n                    totalValue +\n                    getUserLendingBalanceEthValue(\n                        user,\n                        allowedTokens[allowedTokensIndex]\n                    );\n            }\n        }\n        return totalValue;\n    }\n\n\n    function tokenIsAllowed(address token) public view returns (bool) {\n        for (\n            uint256 allowedTokensIndex = 0;\n            allowedTokensIndex < allowedTokens.length;\n            allowedTokensIndex++\n        ) {\n            if (allowedTokens[allowedTokensIndex] == token) {\n                return true;\n            }\n        }\n        return false;\n    }\n\n    function updateUniqueTokensLent(address user, address token) internal {\n        if (lendingBalance[token][user] <= 0) {\n            uniqueTokensLent[user] = uniqueTokensLent[user] + 1;\n        }\n    }\n\n    function getUserLendingBalanceEthValue(address user, address token) public view returns (uint256) {\n        if (uniqueTokensLent[user] <= 0) {\n            return 0;\n        }\n        return\n            (lendingBalance[token][user] * getTokenEthPrice(token)) / (10**18);\n    }\n\n    function getTokenEthPrice(address token) public view returns (uint256) {\n        address priceFeedAddress = tokenPriceFeedMapping[token];\n        AggregatorV3Interface priceFeed = AggregatorV3Interface(\n            priceFeedAddress\n        );\n        (\n            uint80 roundID,\n            int256 price,\n            uint256 startedAt,\n            uint256 timeStamp,\n            uint80 answeredInRound\n        ) = priceFeed.latestRoundData();\n        return uint256(price);\n    }\n\n    function issueTokens() public onlyOwner {\n        // Issue tokens to all stakers\n        for (\n            uint256 lendersIndex = 0;\n            lendersIndex < lenders.length;\n            lendersIndex++\n        ) {\n            address recipient = lenders[lendersIndex];\n            rupyaToken.transfer(recipient, getUserTotalValue(recipient));\n        }\n    }\n}",
  "sourcePath": "/Users/aayushnaik/Documents/Projects/Hackathons/rupya/contracts/contracts/polygon/core/Lend.sol",
  "compiler": {
    "name": "solc",
    "version": "0.8.10+commit.fc410830.Emscripten.clang"
  },
  "schemaVersion": "3.4.2",
  "updatedAt": "2021-12-12T10:31:14.869Z",
  "devdoc": {
    "kind": "dev",
    "methods": {
      "owner()": {
        "details": "Returns the address of the current owner."
      },
      "renounceOwnership()": {
        "details": "Leaves the contract without owner. It will not be possible to call `onlyOwner` functions anymore. Can only be called by the current owner. NOTE: Renouncing ownership will leave the contract without an owner, thereby removing any functionality that is only available to the owner."
      },
      "transferOwnership(address)": {
        "details": "Transfers ownership of the contract to a new account (`newOwner`). Can only be called by the current owner."
      }
    },
    "version": 1
  },
  "userdoc": {
    "kind": "user",
    "methods": {},
    "version": 1
  },
  "db": {
    "callBytecode": {
      "id": "0xcbb14534337b022f03b7769e6bf62bd2317ce364b2a0d6db3890374fe5ce3d6d"
    },
    "createBytecode": {
      "id": "0x34416d4a09ecd4ba4cdcbbbe14e2d95cb2e7ffcd0ae86125eed48e6beae15743"
    },
    "contract": {
      "id": "0x773810a3b2926e8c55ada0e996e369e36ce36cd55a9a2ab17190f21b358350fe"
    }
  }
}