{
  "contractName": "LendBorrow",
  "abi": [
    {
      "inputs": [
        {
          "internalType": "address",
          "name": "_rupyaTokenAddress",
          "type": "address"
        },
        {
          "internalType": "address",
          "name": "_usdcTokenAddress",
          "type": "address"
        }
      ],
      "stateMutability": "nonpayable",
      "type": "constructor"
    },
    {
      "anonymous": false,
      "inputs": [
        {
          "indexed": true,
          "internalType": "bytes32",
          "name": "id",
          "type": "bytes32"
        }
      ],
      "name": "ChainlinkCancelled",
      "type": "event"
    },
    {
      "anonymous": false,
      "inputs": [
        {
          "indexed": true,
          "internalType": "bytes32",
          "name": "id",
          "type": "bytes32"
        }
      ],
      "name": "ChainlinkFulfilled",
      "type": "event"
    },
    {
      "anonymous": false,
      "inputs": [
        {
          "indexed": true,
          "internalType": "bytes32",
          "name": "id",
          "type": "bytes32"
        }
      ],
      "name": "ChainlinkRequested",
      "type": "event"
    },
    {
      "anonymous": false,
      "inputs": [
        {
          "indexed": true,
          "internalType": "address",
          "name": "previousOwner",
          "type": "address"
        },
        {
          "indexed": true,
          "internalType": "address",
          "name": "newOwner",
          "type": "address"
        }
      ],
      "name": "OwnershipTransferred",
      "type": "event"
    },
    {
      "anonymous": false,
      "inputs": [
        {
          "indexed": false,
          "internalType": "address",
          "name": "user",
          "type": "address"
        },
        {
          "indexed": false,
          "internalType": "uint256",
          "name": "index",
          "type": "uint256"
        },
        {
          "indexed": false,
          "internalType": "string",
          "name": "ipfsHash",
          "type": "string"
        }
      ],
      "name": "newLoanRequest",
      "type": "event"
    },
    {
      "inputs": [
        {
          "internalType": "address",
          "name": "",
          "type": "address"
        },
        {
          "internalType": "uint256",
          "name": "",
          "type": "uint256"
        }
      ],
      "name": "entriesForUser",
      "outputs": [
        {
          "internalType": "uint256",
          "name": "",
          "type": "uint256"
        }
      ],
      "stateMutability": "view",
      "type": "function"
    },
    {
      "inputs": [
        {
          "internalType": "uint256",
          "name": "",
          "type": "uint256"
        }
      ],
      "name": "lenders",
      "outputs": [
        {
          "internalType": "address",
          "name": "",
          "type": "address"
        }
      ],
      "stateMutability": "view",
      "type": "function"
    },
    {
      "inputs": [
        {
          "internalType": "address",
          "name": "",
          "type": "address"
        },
        {
          "internalType": "address",
          "name": "",
          "type": "address"
        }
      ],
      "name": "lendingBalance",
      "outputs": [
        {
          "internalType": "uint256",
          "name": "",
          "type": "uint256"
        }
      ],
      "stateMutability": "view",
      "type": "function"
    },
    {
      "inputs": [],
      "name": "owner",
      "outputs": [
        {
          "internalType": "address",
          "name": "",
          "type": "address"
        }
      ],
      "stateMutability": "view",
      "type": "function"
    },
    {
      "inputs": [],
      "name": "renounceOwnership",
      "outputs": [],
      "stateMutability": "nonpayable",
      "type": "function"
    },
    {
      "inputs": [],
      "name": "rupyaToken",
      "outputs": [
        {
          "internalType": "contract IERC20",
          "name": "",
          "type": "address"
        }
      ],
      "stateMutability": "view",
      "type": "function"
    },
    {
      "inputs": [
        {
          "internalType": "address",
          "name": "",
          "type": "address"
        }
      ],
      "name": "tokenPriceFeedMapping",
      "outputs": [
        {
          "internalType": "address",
          "name": "",
          "type": "address"
        }
      ],
      "stateMutability": "view",
      "type": "function"
    },
    {
      "inputs": [
        {
          "internalType": "address",
          "name": "newOwner",
          "type": "address"
        }
      ],
      "name": "transferOwnership",
      "outputs": [],
      "stateMutability": "nonpayable",
      "type": "function"
    },
    {
      "inputs": [
        {
          "internalType": "address",
          "name": "",
          "type": "address"
        }
      ],
      "name": "uniqueTokensLent",
      "outputs": [
        {
          "internalType": "uint256",
          "name": "",
          "type": "uint256"
        }
      ],
      "stateMutability": "view",
      "type": "function"
    },
    {
      "inputs": [],
      "name": "usdcToken",
      "outputs": [
        {
          "internalType": "contract IERC20",
          "name": "",
          "type": "address"
        }
      ],
      "stateMutability": "view",
      "type": "function"
    },
    {
      "inputs": [
        {
          "internalType": "address",
          "name": "token",
          "type": "address"
        }
      ],
      "name": "addAllowedTokens",
      "outputs": [],
      "stateMutability": "nonpayable",
      "type": "function"
    },
    {
      "inputs": [
        {
          "internalType": "address",
          "name": "token",
          "type": "address"
        },
        {
          "internalType": "address",
          "name": "priceFeed",
          "type": "address"
        }
      ],
      "name": "setPriceFeedContract",
      "outputs": [],
      "stateMutability": "nonpayable",
      "type": "function"
    },
    {
      "inputs": [
        {
          "internalType": "uint256",
          "name": "_amount",
          "type": "uint256"
        },
        {
          "internalType": "address",
          "name": "token",
          "type": "address"
        }
      ],
      "name": "lendTokens",
      "outputs": [],
      "stateMutability": "nonpayable",
      "type": "function"
    },
    {
      "inputs": [
        {
          "internalType": "uint256",
          "name": "_amount",
          "type": "uint256"
        },
        {
          "internalType": "address",
          "name": "token",
          "type": "address"
        }
      ],
      "name": "withdrawTokens",
      "outputs": [],
      "stateMutability": "nonpayable",
      "type": "function"
    },
    {
      "inputs": [
        {
          "internalType": "address",
          "name": "user",
          "type": "address"
        },
        {
          "internalType": "address",
          "name": "token",
          "type": "address"
        }
      ],
      "name": "getUserTokenValue",
      "outputs": [
        {
          "internalType": "uint256",
          "name": "",
          "type": "uint256"
        }
      ],
      "stateMutability": "view",
      "type": "function"
    },
    {
      "inputs": [
        {
          "internalType": "address",
          "name": "user",
          "type": "address"
        }
      ],
      "name": "getUserTotalValue",
      "outputs": [
        {
          "internalType": "uint256",
          "name": "",
          "type": "uint256"
        }
      ],
      "stateMutability": "view",
      "type": "function"
    },
    {
      "inputs": [
        {
          "internalType": "address",
          "name": "token",
          "type": "address"
        }
      ],
      "name": "tokenIsAllowed",
      "outputs": [
        {
          "internalType": "bool",
          "name": "",
          "type": "bool"
        }
      ],
      "stateMutability": "view",
      "type": "function"
    },
    {
      "inputs": [
        {
          "internalType": "address",
          "name": "user",
          "type": "address"
        },
        {
          "internalType": "address",
          "name": "token",
          "type": "address"
        }
      ],
      "name": "getUserLendingBalanceEthValue",
      "outputs": [
        {
          "internalType": "uint256",
          "name": "",
          "type": "uint256"
        }
      ],
      "stateMutability": "view",
      "type": "function"
    },
    {
      "inputs": [
        {
          "internalType": "address",
          "name": "token",
          "type": "address"
        }
      ],
      "name": "getTokenEthPrice",
      "outputs": [
        {
          "internalType": "uint256",
          "name": "",
          "type": "uint256"
        }
      ],
      "stateMutability": "view",
      "type": "function"
    },
    {
      "inputs": [],
      "name": "issueTokens",
      "outputs": [],
      "stateMutability": "nonpayable",
      "type": "function"
    },
    {
      "inputs": [
        {
          "internalType": "uint256",
          "name": "principal",
          "type": "uint256"
        },
        {
          "internalType": "uint256",
          "name": "duration",
          "type": "uint256"
        },
        {
          "internalType": "address",
          "name": "token",
          "type": "address"
        },
        {
          "internalType": "uint256",
          "name": "totalAmount",
          "type": "uint256"
        },
        {
          "internalType": "string",
          "name": "ipfsHash",
          "type": "string"
        }
      ],
      "name": "createBorrowRequest",
      "outputs": [],
      "stateMutability": "nonpayable",
      "type": "function"
    },
    {
      "inputs": [
        {
          "internalType": "address",
          "name": "user",
          "type": "address"
        },
        {
          "internalType": "uint256",
          "name": "index",
          "type": "uint256"
        }
      ],
      "name": "approveBorrowRequest",
      "outputs": [],
      "stateMutability": "nonpayable",
      "type": "function"
    },
    {
      "inputs": [
        {
          "internalType": "uint256",
          "name": "index",
          "type": "uint256"
        }
      ],
      "name": "getApprovalStatus",
      "outputs": [
        {
          "internalType": "bool",
          "name": "",
          "type": "bool"
        }
      ],
      "stateMutability": "view",
      "type": "function"
    },
    {
      "inputs": [
        {
          "internalType": "uint256",
          "name": "index",
          "type": "uint256"
        }
      ],
      "name": "lendMoney",
      "outputs": [],
      "stateMutability": "nonpayable",
      "type": "function"
    }
  ],
  "bytecode": "0x608060405260016004553480156200001657600080fd5b5060405162002ce838038062002ce883398181016040528101906200003c9190620002a0565b6200005c620000506200016860201b60201c565b6200017060201b60201c565b81600c60006101000a81548173ffffffffffffffffffffffffffffffffffffffff021916908373ffffffffffffffffffffffffffffffffffffffff16021790555080600d60006101000a81548173ffffffffffffffffffffffffffffffffffffffff021916908373ffffffffffffffffffffffffffffffffffffffff16021790555081600f60006101000a81548173ffffffffffffffffffffffffffffffffffffffff021916908373ffffffffffffffffffffffffffffffffffffffff16021790555080600e60006101000a81548173ffffffffffffffffffffffffffffffffffffffff021916908373ffffffffffffffffffffffffffffffffffffffff1602179055505050620002e7565b600033905090565b6000600660009054906101000a900473ffffffffffffffffffffffffffffffffffffffff16905081600660006101000a81548173ffffffffffffffffffffffffffffffffffffffff021916908373ffffffffffffffffffffffffffffffffffffffff1602179055508173ffffffffffffffffffffffffffffffffffffffff168173ffffffffffffffffffffffffffffffffffffffff167f8be0079c531659141344cd1fd0a4f28419497f9722a3daafe3b4186f6b6457e060405160405180910390a35050565b600080fd5b600073ffffffffffffffffffffffffffffffffffffffff82169050919050565b600062000268826200023b565b9050919050565b6200027a816200025b565b81146200028657600080fd5b50565b6000815190506200029a816200026f565b92915050565b60008060408385031215620002ba57620002b962000236565b5b6000620002ca8582860162000289565b9250506020620002dd8582860162000289565b9150509250929050565b6129f180620002f76000396000f3fe608060405234801561001057600080fd5b50600436106101575760003560e01c80638da5cb5b116100c3578063cf16fd0b1161007c578063cf16fd0b146103d6578063dd5b846714610406578063df00018d14610436578063f2fde38b14610466578063f344e7e914610482578063fcce65c01461049e57610157565b80638da5cb5b14610302578063929eea2114610320578063935c7f1114610350578063996c13851461036c578063af3f5e221461038a578063bec228d8146103ba57610157565b80633572e00d116101155780633572e00d14610256578063398d92bb1461028657806346817821146102a257806360ab5852146102d2578063715018a6146102dc578063877dd39d146102e657610157565b8062e73f821461015c57806311eac8551461018c578063171e44ea146101aa5780631dd37064146101c657806326d2ad5a146101f657806327927b3e14610226575b600080fd5b61017660048036038101906101719190611e4f565b6104ba565b6040516101839190611ea8565b60405180910390f35b6101946105b7565b6040516101a19190611f22565b60405180910390f35b6101c460048036038101906101bf9190611f3d565b6105dd565b005b6101e060048036038101906101db9190611e4f565b6106bf565b6040516101ed9190611ea8565b60405180910390f35b610210600480360381019061020b9190611f96565b6106e4565b60405161021d9190611ea8565b60405180910390f35b610240600480360381019061023b9190611f3d565b610715565b60405161024d9190611fe5565b60405180910390f35b610270600480360381019061026b9190611e4f565b610748565b60405161027d9190611ea8565b60405180910390f35b6102a0600480360381019061029b9190612000565b6107cf565b005b6102bc60048036038101906102b79190611f3d565b610afa565b6040516102c99190611ea8565b60405180910390f35b6102da610b12565b005b6102e4610ca1565b005b61030060048036038101906102fb9190611e4f565b610d29565b005b61030a610e27565b6040516103179190611fe5565b60405180910390f35b61033a60048036038101906103359190612040565b610e51565b6040516103479190611fe5565b60405180910390f35b61036a600480360381019061036591906121b3565b610e90565b005b610374611167565b6040516103819190611f22565b60405180910390f35b6103a4600480360381019061039f9190611f3d565b61118d565b6040516103b19190611ea8565b60405180910390f35b6103d460048036038101906103cf9190612040565b61125f565b005b6103f060048036038101906103eb9190612040565b6113e5565b6040516103fd9190612265565b60405180910390f35b610420600480360381019061041b9190611f3d565b61145e565b60405161042d9190612265565b60405180910390f35b610450600480360381019061044b9190611f3d565b61150d565b60405161045d9190611ea8565b60405180910390f35b610480600480360381019061047b9190611f3d565b611607565b005b61049c60048036038101906104979190611f96565b6116ff565b005b6104b860048036038101906104b39190612000565b6118bf565b005b600080600960008573ffffffffffffffffffffffffffffffffffffffff1673ffffffffffffffffffffffffffffffffffffffff168152602001908152602001600020541161050b57600090506105b1565b670de0b6b3a764000061051d8361150d565b600860008573ffffffffffffffffffffffffffffffffffffffff1673ffffffffffffffffffffffffffffffffffffffff16815260200190815260200160002060008673ffffffffffffffffffffffffffffffffffffffff1673ffffffffffffffffffffffffffffffffffffffff168152602001908152602001600020546105a491906122af565b6105ae9190612338565b90505b92915050565b600d60009054906101000a900473ffffffffffffffffffffffffffffffffffffffff1681565b6105e5611b54565b73ffffffffffffffffffffffffffffffffffffffff16610603610e27565b73ffffffffffffffffffffffffffffffffffffffff1614610659576040517f08c379a0000000000000000000000000000000000000000000000000000000008152600401610650906123c6565b60405180910390fd5b600b819080600181540180825580915050600190039060005260206000200160009091909190916101000a81548173ffffffffffffffffffffffffffffffffffffffff021916908373ffffffffffffffffffffffffffffffffffffffff16021790555050565b6008602052816000526040600020602052806000526040600020600091509150505481565b6014602052816000526040600020818154811061070057600080fd5b90600052602060002001600091509150505481565b600a6020528060005260406000206000915054906101000a900473ffffffffffffffffffffffffffffffffffffffff1681565b6000600860008373ffffffffffffffffffffffffffffffffffffffff1673ffffffffffffffffffffffffffffffffffffffff16815260200190815260200160002060008473ffffffffffffffffffffffffffffffffffffffff1673ffffffffffffffffffffffffffffffffffffffff16815260200190815260200160002054905092915050565b6000600860008373ffffffffffffffffffffffffffffffffffffffff1673ffffffffffffffffffffffffffffffffffffffff16815260200190815260200160002060003373ffffffffffffffffffffffffffffffffffffffff1673ffffffffffffffffffffffffffffffffffffffff16815260200190815260200160002054905060008111610893576040517f08c379a000000000000000000000000000000000000000000000000000000000815260040161088a90612432565b60405180910390fd5b8281116108d5576040517f08c379a00000000000000000000000000000000000000000000000000000000081526004016108cc906124c4565b60405180910390fd5b8173ffffffffffffffffffffffffffffffffffffffff1663a9059cbb33856040518363ffffffff1660e01b81526004016109109291906124e4565b6020604051808303816000875af115801561092f573d6000803e3d6000fd5b505050506040513d601f19601f820116820180604052508101906109539190612539565b5082816109609190612566565b600860008473ffffffffffffffffffffffffffffffffffffffff1673ffffffffffffffffffffffffffffffffffffffff16815260200190815260200160002060003373ffffffffffffffffffffffffffffffffffffffff1673ffffffffffffffffffffffffffffffffffffffff168152602001908152602001600020819055506000600860008473ffffffffffffffffffffffffffffffffffffffff1673ffffffffffffffffffffffffffffffffffffffff16815260200190815260200160002060003373ffffffffffffffffffffffffffffffffffffffff1673ffffffffffffffffffffffffffffffffffffffff168152602001908152602001600020541415610af5576001600960003373ffffffffffffffffffffffffffffffffffffffff1673ffffffffffffffffffffffffffffffffffffffff16815260200190815260200160002054610ab19190612566565b600960003373ffffffffffffffffffffffffffffffffffffffff1673ffffffffffffffffffffffffffffffffffffffff168152602001908152602001600020819055505b505050565b60096020528060005260406000206000915090505481565b610b1a611b54565b73ffffffffffffffffffffffffffffffffffffffff16610b38610e27565b73ffffffffffffffffffffffffffffffffffffffff1614610b8e576040517f08c379a0000000000000000000000000000000000000000000000000000000008152600401610b85906123c6565b60405180910390fd5b60005b600780549050811015610c9e57600060078281548110610bb457610bb361259a565b5b9060005260206000200160009054906101000a900473ffffffffffffffffffffffffffffffffffffffff169050600c60009054906101000a900473ffffffffffffffffffffffffffffffffffffffff1673ffffffffffffffffffffffffffffffffffffffff1663a9059cbb82610c298461118d565b6040518363ffffffff1660e01b8152600401610c469291906124e4565b6020604051808303816000875af1158015610c65573d6000803e3d6000fd5b505050506040513d601f19601f82011682018060405250810190610c899190612539565b50508080610c96906125c9565b915050610b91565b50565b610ca9611b54565b73ffffffffffffffffffffffffffffffffffffffff16610cc7610e27565b73ffffffffffffffffffffffffffffffffffffffff1614610d1d576040517f08c379a0000000000000000000000000000000000000000000000000000000008152600401610d14906123c6565b60405180910390fd5b610d276000611b5c565b565b610d31611b54565b73ffffffffffffffffffffffffffffffffffffffff16610d4f610e27565b73ffffffffffffffffffffffffffffffffffffffff1614610da5576040517f08c379a0000000000000000000000000000000000000000000000000000000008152600401610d9c906123c6565b60405180910390fd5b80600a60008473ffffffffffffffffffffffffffffffffffffffff1673ffffffffffffffffffffffffffffffffffffffff16815260200190815260200160002060006101000a81548173ffffffffffffffffffffffffffffffffffffffff021916908373ffffffffffffffffffffffffffffffffffffffff1602179055505050565b6000600660009054906101000a900473ffffffffffffffffffffffffffffffffffffffff16905090565b60078181548110610e6157600080fd5b906000526020600020016000915054906101000a900473ffffffffffffffffffffffffffffffffffffffff1681565b60006040518061010001604052808573ffffffffffffffffffffffffffffffffffffffff16815260200187815260200184815260200186815260200160008152602001600015158152602001600015158152602001838152509050601560003373ffffffffffffffffffffffffffffffffffffffff1673ffffffffffffffffffffffffffffffffffffffff16815260200190815260200160002081908060018154018082558091505060019003906000526020600020906007020160009091909190915060008201518160000160006101000a81548173ffffffffffffffffffffffffffffffffffffffff021916908373ffffffffffffffffffffffffffffffffffffffff1602179055506020820151816001015560408201518160020155606082015181600301556080820151816004015560a08201518160050160006101000a81548160ff02191690831515021790555060c08201518160050160016101000a81548160ff02191690831515021790555060e082015181600601908051906020019061101f929190611d3a565b505050601660003373ffffffffffffffffffffffffffffffffffffffff1673ffffffffffffffffffffffffffffffffffffffff1681526020019081526020016000206001601560003373ffffffffffffffffffffffffffffffffffffffff1673ffffffffffffffffffffffffffffffffffffffff168152602001908152602001600020805490506110b09190612566565b90806001815401808255809150506001900390600052602060002001600090919091909150557f769845dbb156181faaf79058d46735251c58a1933bf7cc8e5fe7edfc3ae515ff336001601560003373ffffffffffffffffffffffffffffffffffffffff1673ffffffffffffffffffffffffffffffffffffffff168152602001908152602001600020805490506111479190612566565b8460405161115793929190612689565b60405180910390a1505050505050565b600c60009054906101000a900473ffffffffffffffffffffffffffffffffffffffff1681565b600080600090506000600960008573ffffffffffffffffffffffffffffffffffffffff1673ffffffffffffffffffffffffffffffffffffffff1681526020019081526020016000205411156112565760005b600b805490508110156112545761123484600b83815481106112045761120361259a565b5b9060005260206000200160009054906101000a900473ffffffffffffffffffffffffffffffffffffffff166104ba565b8261123f91906126c7565b9150808061124c906125c9565b9150506111df565b505b80915050919050565b60011515601560003373ffffffffffffffffffffffffffffffffffffffff1673ffffffffffffffffffffffffffffffffffffffff16815260200190815260200160002082815481106112b4576112b361259a565b5b906000526020600020906007020160050160019054906101000a900460ff161515146112df57600080fd5b600d60009054906101000a900473ffffffffffffffffffffffffffffffffffffffff1673ffffffffffffffffffffffffffffffffffffffff1663a9059cbb33601560003373ffffffffffffffffffffffffffffffffffffffff1673ffffffffffffffffffffffffffffffffffffffff168152602001908152602001600020848154811061136f5761136e61259a565b5b9060005260206000209060070201600101546040518363ffffffff1660e01b815260040161139e9291906124e4565b6020604051808303816000875af11580156113bd573d6000803e3d6000fd5b505050506040513d601f19601f820116820180604052508101906113e19190612539565b5050565b6000601560003373ffffffffffffffffffffffffffffffffffffffff1673ffffffffffffffffffffffffffffffffffffffff16815260200190815260200160002082815481106114385761143761259a565b5b906000526020600020906007020160050160019054906101000a900460ff169050919050565b600080600090505b600b80549050811015611502578273ffffffffffffffffffffffffffffffffffffffff16600b828154811061149e5761149d61259a565b5b9060005260206000200160009054906101000a900473ffffffffffffffffffffffffffffffffffffffff1673ffffffffffffffffffffffffffffffffffffffff1614156114ef576001915050611508565b80806114fa906125c9565b915050611466565b50600090505b919050565b600080600a60008473ffffffffffffffffffffffffffffffffffffffff1673ffffffffffffffffffffffffffffffffffffffff16815260200190815260200160002060009054906101000a900473ffffffffffffffffffffffffffffffffffffffff169050600081905060008060008060008573ffffffffffffffffffffffffffffffffffffffff1663feaf968c6040518163ffffffff1660e01b815260040160a060405180830381865afa1580156115ca573d6000803e3d6000fd5b505050506040513d601f19601f820116820180604052508101906115ee91906127aa565b9450945094509450945083975050505050505050919050565b61160f611b54565b73ffffffffffffffffffffffffffffffffffffffff1661162d610e27565b73ffffffffffffffffffffffffffffffffffffffff1614611683576040517f08c379a000000000000000000000000000000000000000000000000000000000815260040161167a906123c6565b60405180910390fd5b600073ffffffffffffffffffffffffffffffffffffffff168173ffffffffffffffffffffffffffffffffffffffff1614156116f3576040517f08c379a00000000000000000000000000000000000000000000000000000000081526004016116ea90612897565b60405180910390fd5b6116fc81611b5c565b50565b6001601560008473ffffffffffffffffffffffffffffffffffffffff1673ffffffffffffffffffffffffffffffffffffffff16815260200190815260200160002082815481106117525761175161259a565b5b90600052602060002090600702016004015461176e91906126c7565b601560008473ffffffffffffffffffffffffffffffffffffffff1673ffffffffffffffffffffffffffffffffffffffff16815260200190815260200160002082815481106117bf576117be61259a565b5b9060005260206000209060070201600401819055506002601560008473ffffffffffffffffffffffffffffffffffffffff1673ffffffffffffffffffffffffffffffffffffffff16815260200190815260200160002082815481106118275761182661259a565b5b90600052602060002090600702016004015414156118bb576001601560008473ffffffffffffffffffffffffffffffffffffffff1673ffffffffffffffffffffffffffffffffffffffff16815260200190815260200160002082815481106118925761189161259a565b5b906000526020600020906007020160050160016101000a81548160ff0219169083151502179055505b5050565b60008211611902576040517f08c379a00000000000000000000000000000000000000000000000000000000081526004016118f990612903565b60405180910390fd5b61190b8161145e565b15611b505761191a3382611c22565b8073ffffffffffffffffffffffffffffffffffffffff166323b872dd3330856040518463ffffffff1660e01b815260040161195793929190612923565b6020604051808303816000875af1158015611976573d6000803e3d6000fd5b505050506040513d601f19601f8201168201806040525081019061199a9190612539565b5081600860008373ffffffffffffffffffffffffffffffffffffffff1673ffffffffffffffffffffffffffffffffffffffff16815260200190815260200160002060003373ffffffffffffffffffffffffffffffffffffffff1673ffffffffffffffffffffffffffffffffffffffff16815260200190815260200160002054611a2391906126c7565b600860008373ffffffffffffffffffffffffffffffffffffffff1673ffffffffffffffffffffffffffffffffffffffff16815260200190815260200160002060003373ffffffffffffffffffffffffffffffffffffffff1673ffffffffffffffffffffffffffffffffffffffff168152602001908152602001600020819055506001600960003373ffffffffffffffffffffffffffffffffffffffff1673ffffffffffffffffffffffffffffffffffffffff168152602001908152602001600020541415611b4f576007339080600181540180825580915050600190039060005260206000200160009091909190916101000a81548173ffffffffffffffffffffffffffffffffffffffff021916908373ffffffffffffffffffffffffffffffffffffffff1602179055505b5b5050565b600033905090565b6000600660009054906101000a900473ffffffffffffffffffffffffffffffffffffffff16905081600660006101000a81548173ffffffffffffffffffffffffffffffffffffffff021916908373ffffffffffffffffffffffffffffffffffffffff1602179055508173ffffffffffffffffffffffffffffffffffffffff168173ffffffffffffffffffffffffffffffffffffffff167f8be0079c531659141344cd1fd0a4f28419497f9722a3daafe3b4186f6b6457e060405160405180910390a35050565b6000600860008373ffffffffffffffffffffffffffffffffffffffff1673ffffffffffffffffffffffffffffffffffffffff16815260200190815260200160002060008473ffffffffffffffffffffffffffffffffffffffff1673ffffffffffffffffffffffffffffffffffffffff1681526020019081526020016000205411611d36576001600960008473ffffffffffffffffffffffffffffffffffffffff1673ffffffffffffffffffffffffffffffffffffffff16815260200190815260200160002054611cf291906126c7565b600960008473ffffffffffffffffffffffffffffffffffffffff1673ffffffffffffffffffffffffffffffffffffffff168152602001908152602001600020819055505b5050565b828054611d4690612989565b90600052602060002090601f016020900481019282611d685760008555611daf565b82601f10611d8157805160ff1916838001178555611daf565b82800160010185558215611daf579182015b82811115611dae578251825591602001919060010190611d93565b5b509050611dbc9190611dc0565b5090565b5b80821115611dd9576000816000905550600101611dc1565b5090565b6000604051905090565b600080fd5b600080fd5b600073ffffffffffffffffffffffffffffffffffffffff82169050919050565b6000611e1c82611df1565b9050919050565b611e2c81611e11565b8114611e3757600080fd5b50565b600081359050611e4981611e23565b92915050565b60008060408385031215611e6657611e65611de7565b5b6000611e7485828601611e3a565b9250506020611e8585828601611e3a565b9150509250929050565b6000819050919050565b611ea281611e8f565b82525050565b6000602082019050611ebd6000830184611e99565b92915050565b6000819050919050565b6000611ee8611ee3611ede84611df1565b611ec3565b611df1565b9050919050565b6000611efa82611ecd565b9050919050565b6000611f0c82611eef565b9050919050565b611f1c81611f01565b82525050565b6000602082019050611f376000830184611f13565b92915050565b600060208284031215611f5357611f52611de7565b5b6000611f6184828501611e3a565b91505092915050565b611f7381611e8f565b8114611f7e57600080fd5b50565b600081359050611f9081611f6a565b92915050565b60008060408385031215611fad57611fac611de7565b5b6000611fbb85828601611e3a565b9250506020611fcc85828601611f81565b9150509250929050565b611fdf81611e11565b82525050565b6000602082019050611ffa6000830184611fd6565b92915050565b6000806040838503121561201757612016611de7565b5b600061202585828601611f81565b925050602061203685828601611e3a565b9150509250929050565b60006020828403121561205657612055611de7565b5b600061206484828501611f81565b91505092915050565b600080fd5b600080fd5b6000601f19601f8301169050919050565b7f4e487b7100000000000000000000000000000000000000000000000000000000600052604160045260246000fd5b6120c082612077565b810181811067ffffffffffffffff821117156120df576120de612088565b5b80604052505050565b60006120f2611ddd565b90506120fe82826120b7565b919050565b600067ffffffffffffffff82111561211e5761211d612088565b5b61212782612077565b9050602081019050919050565b82818337600083830152505050565b600061215661215184612103565b6120e8565b90508281526020810184848401111561217257612171612072565b5b61217d848285612134565b509392505050565b600082601f83011261219a5761219961206d565b5b81356121aa848260208601612143565b91505092915050565b600080600080600060a086880312156121cf576121ce611de7565b5b60006121dd88828901611f81565b95505060206121ee88828901611f81565b94505060406121ff88828901611e3a565b935050606061221088828901611f81565b925050608086013567ffffffffffffffff81111561223157612230611dec565b5b61223d88828901612185565b9150509295509295909350565b60008115159050919050565b61225f8161224a565b82525050565b600060208201905061227a6000830184612256565b92915050565b7f4e487b7100000000000000000000000000000000000000000000000000000000600052601160045260246000fd5b60006122ba82611e8f565b91506122c583611e8f565b9250817fffffffffffffffffffffffffffffffffffffffffffffffffffffffffffffffff04831182151516156122fe576122fd612280565b5b828202905092915050565b7f4e487b7100000000000000000000000000000000000000000000000000000000600052601260045260246000fd5b600061234382611e8f565b915061234e83611e8f565b92508261235e5761235d612309565b5b828204905092915050565b600082825260208201905092915050565b7f4f776e61626c653a2063616c6c6572206973206e6f7420746865206f776e6572600082015250565b60006123b0602083612369565b91506123bb8261237a565b602082019050919050565b600060208201905081810360008301526123df816123a3565b9050919050565b7f6c656e64696e672062616c616e63652063616e6e6f7420626520300000000000600082015250565b600061241c601b83612369565b9150612427826123e6565b602082019050919050565b6000602082019050818103600083015261244b8161240f565b9050919050565b7f7769746864726177616c2062616c616e63652063616e6e6f74206265206c657360008201527f73207468616e206c656e64696e672062616c616e636500000000000000000000602082015250565b60006124ae603683612369565b91506124b982612452565b604082019050919050565b600060208201905081810360008301526124dd816124a1565b9050919050565b60006040820190506124f96000830185611fd6565b6125066020830184611e99565b9392505050565b6125168161224a565b811461252157600080fd5b50565b6000815190506125338161250d565b92915050565b60006020828403121561254f5761254e611de7565b5b600061255d84828501612524565b91505092915050565b600061257182611e8f565b915061257c83611e8f565b92508282101561258f5761258e612280565b5b828203905092915050565b7f4e487b7100000000000000000000000000000000000000000000000000000000600052603260045260246000fd5b60006125d482611e8f565b91507fffffffffffffffffffffffffffffffffffffffffffffffffffffffffffffffff82141561260757612606612280565b5b600182019050919050565b600081519050919050565b60005b8381101561263b578082015181840152602081019050612620565b8381111561264a576000848401525b50505050565b600061265b82612612565b6126658185612369565b935061267581856020860161261d565b61267e81612077565b840191505092915050565b600060608201905061269e6000830186611fd6565b6126ab6020830185611e99565b81810360408301526126bd8184612650565b9050949350505050565b60006126d282611e8f565b91506126dd83611e8f565b9250827fffffffffffffffffffffffffffffffffffffffffffffffffffffffffffffffff0382111561271257612711612280565b5b828201905092915050565b600069ffffffffffffffffffff82169050919050565b61273c8161271d565b811461274757600080fd5b50565b60008151905061275981612733565b92915050565b6000819050919050565b6127728161275f565b811461277d57600080fd5b50565b60008151905061278f81612769565b92915050565b6000815190506127a481611f6a565b92915050565b600080600080600060a086880312156127c6576127c5611de7565b5b60006127d48882890161274a565b95505060206127e588828901612780565b94505060406127f688828901612795565b935050606061280788828901612795565b92505060806128188882890161274a565b9150509295509295909350565b7f4f776e61626c653a206e6577206f776e657220697320746865207a65726f206160008201527f6464726573730000000000000000000000000000000000000000000000000000602082015250565b6000612881602683612369565b915061288c82612825565b604082019050919050565b600060208201905081810360008301526128b081612874565b9050919050565b7f616d6f756e742063616e6e6f7420626520300000000000000000000000000000600082015250565b60006128ed601283612369565b91506128f8826128b7565b602082019050919050565b6000602082019050818103600083015261291c816128e0565b9050919050565b60006060820190506129386000830186611fd6565b6129456020830185611fd6565b6129526040830184611e99565b949350505050565b7f4e487b7100000000000000000000000000000000000000000000000000000000600052602260045260246000fd5b600060028204905060018216806129a157607f821691505b602082108114156129b5576129b461295a565b5b5091905056fea2646970667358221220024c604d093a2a4642e320bbab01ae2ff092bc0a56669fbc7b92e60183c76ac564736f6c634300080a0033",
  "immutableReferences": {},
  "source": "// SPDX-License-Identifier: MIT\npragma solidity ^0.8.0;\nimport \"@chainlink/contracts/src/v0.8/interfaces/AggregatorV3Interface.sol\";\nimport \"@chainlink/contracts/src/v0.8/ChainlinkClient.sol\";\nimport \"@openzeppelin/contracts/token/ERC20/IERC20.sol\";\nimport \"@openzeppelin/contracts/access/Ownable.sol\";\n\ncontract LendBorrow is ChainlinkClient, Ownable {\n    address[] public lenders;\n\n    mapping(address => mapping(address => uint256)) public lendingBalance;\n    mapping(address => uint256) public uniqueTokensLent;\n    mapping(address => address) public tokenPriceFeedMapping;\n    address[] allowedTokens;\n\n    IERC20 public rupyaToken;\n    IERC20 public usdcToken;\n    address usdcTokenAddress;\n    address rupyaTokenAddress;\n\n    constructor(address _rupyaTokenAddress, address _usdcTokenAddress) {\n        rupyaToken = IERC20(_rupyaTokenAddress);\n        usdcToken = IERC20(_usdcTokenAddress);\n        rupyaTokenAddress = _rupyaTokenAddress;\n        usdcTokenAddress = _usdcTokenAddress;\n    }\n\n    function addAllowedTokens(address token) public onlyOwner {\n        allowedTokens.push(token);\n    }\n\n    function setPriceFeedContract(address token, address priceFeed) public onlyOwner {\n        tokenPriceFeedMapping[token] = priceFeed;\n    }\n\n    function lendTokens(uint256 _amount, address token) public {\n        require(_amount > 0, \"amount cannot be 0\");\n        if (tokenIsAllowed(token)) {\n            updateUniqueTokensLent(msg.sender, token);\n            IERC20(token).transferFrom(msg.sender, address(this), _amount);\n            lendingBalance[token][msg.sender] =\n                lendingBalance[token][msg.sender] +\n                _amount;\n            if (uniqueTokensLent[msg.sender] == 1) {\n                lenders.push(msg.sender);\n            }\n        }\n    }\n\n    function withdrawTokens(uint256 _amount, address token) public {\n        uint256 balance = lendingBalance[token][msg.sender];\n        require(balance > 0, \"lending balance cannot be 0\");\n        require(balance > _amount, \"withdrawal balance cannot be less than lending balance\");\n        IERC20(token).transfer(msg.sender, _amount);\n        lendingBalance[token][msg.sender] = balance - _amount;\n        if(lendingBalance[token][msg.sender] == 0){\n            uniqueTokensLent[msg.sender] = uniqueTokensLent[msg.sender] - 1;\n        }\n    }\n\n    function getUserTokenValue(address user, address token) public view returns (uint256) {\n        return lendingBalance[token][user];\n    }\n\n    function getUserTotalValue(address user) public view returns (uint256) {\n        uint256 totalValue = 0;\n        if (uniqueTokensLent[user] > 0) {\n            for (\n                uint256 allowedTokensIndex = 0;\n                allowedTokensIndex < allowedTokens.length;\n                allowedTokensIndex++\n            ) {\n                totalValue =\n                    totalValue +\n                    getUserLendingBalanceEthValue(\n                        user,\n                        allowedTokens[allowedTokensIndex]\n                    );\n            }\n        }\n        return totalValue;\n    }\n\n\n    function tokenIsAllowed(address token) public view returns (bool) {\n        for (\n            uint256 allowedTokensIndex = 0;\n            allowedTokensIndex < allowedTokens.length;\n            allowedTokensIndex++\n        ) {\n            if (allowedTokens[allowedTokensIndex] == token) {\n                return true;\n            }\n        }\n        return false;\n    }\n\n    function updateUniqueTokensLent(address user, address token) internal {\n        if (lendingBalance[token][user] <= 0) {\n            uniqueTokensLent[user] = uniqueTokensLent[user] + 1;\n        }\n    }\n\n    function getUserLendingBalanceEthValue(address user, address token) public view returns (uint256) {\n        if (uniqueTokensLent[user] <= 0) {\n            return 0;\n        }\n        return\n            (lendingBalance[token][user] * getTokenEthPrice(token)) / (10**18);\n    }\n\n    function getTokenEthPrice(address token) public view returns (uint256) {\n        address priceFeedAddress = tokenPriceFeedMapping[token];\n        AggregatorV3Interface priceFeed = AggregatorV3Interface(\n            priceFeedAddress\n        );\n        (\n            uint80 roundID,\n            int256 price,\n            uint256 startedAt,\n            uint256 timeStamp,\n            uint80 answeredInRound\n        ) = priceFeed.latestRoundData();\n        return uint256(price);\n    }\n\n    function issueTokens() public onlyOwner {\n        // Issue tokens to all lenders\n        for (\n            uint256 lendersIndex = 0;\n            lendersIndex < lenders.length;\n            lendersIndex++\n        ) {\n            address recipient = lenders[lendersIndex];\n            rupyaToken.transfer(recipient, getUserTotalValue(recipient));\n        }\n    }\n\n    // mapping(address => )\n    address[] userAddress;\n    uint256[] userAmount;\n    uint256[] borrowDuration;\n    bool[] claimed;\n    mapping(address => uint256[]) public entriesForUser;\n\n    struct Loan{\n        address token;\n        uint256 principal;\n        uint256 totalAmount;\n        uint256 duration;\n        uint256 noOfApprovals;\n        bool repaid;\n        bool approved;\n        string ipfsHash;\n    }\n\n    mapping(address => Loan[]) userToLoanMapper;\n    mapping(address => uint256[]) userLoanIndexMapper;\n\n    event newLoanRequest(address user, uint256 index, string ipfsHash);\n\n\n    function createBorrowRequest(uint256 principal, uint256 duration, address token, uint256 totalAmount, string memory ipfsHash) public {\n        Loan memory newLoan = Loan(\n            token,\n            principal,\n            totalAmount,\n            duration,\n            0,\n            false,\n            false,\n            ipfsHash\n        );\n        userToLoanMapper[msg.sender].push(newLoan);\n        userLoanIndexMapper[msg.sender].push(userToLoanMapper[msg.sender].length - 1);\n        emit newLoanRequest(msg.sender, userToLoanMapper[msg.sender].length - 1, ipfsHash);\n    }\n\n    function approveBorrowRequest(address user, uint256 index) public {\n        userToLoanMapper[user][index].noOfApprovals = userToLoanMapper[user][index].noOfApprovals + 1;\n        if(userToLoanMapper[user][index].noOfApprovals == 2){\n            userToLoanMapper[user][index].approved = true;\n        }\n    }\n\n    function getApprovalStatus(uint256 index) public view returns(bool) {\n        return userToLoanMapper[msg.sender][index].approved;\n    }\n\n    function lendMoney(uint256 index) public {\n        require(userToLoanMapper[msg.sender][index].approved == true);\n        usdcToken.transfer(msg.sender, userToLoanMapper[msg.sender][index].principal);\n    }\n}",
  "sourcePath": "/Users/aayushnaik/Documents/Projects/Hackathons/rupya/contracts/contracts/polygon/core/LendBorrow.sol",
  "compiler": {
    "name": "solc",
    "version": "0.8.10+commit.fc410830.Emscripten.clang"
  },
  "schemaVersion": "3.4.2",
  "updatedAt": "2021-12-15T11:13:27.498Z",
  "devdoc": {
    "kind": "dev",
    "methods": {
      "owner()": {
        "details": "Returns the address of the current owner."
      },
      "renounceOwnership()": {
        "details": "Leaves the contract without owner. It will not be possible to call `onlyOwner` functions anymore. Can only be called by the current owner. NOTE: Renouncing ownership will leave the contract without an owner, thereby removing any functionality that is only available to the owner."
      },
      "transferOwnership(address)": {
        "details": "Transfers ownership of the contract to a new account (`newOwner`). Can only be called by the current owner."
      }
    },
    "version": 1
  },
  "userdoc": {
    "kind": "user",
    "methods": {},
    "version": 1
  },
  "db": {
    "callBytecode": {
      "id": "0x1d7bffd69c24c5f397e02348f38dc50f8259f718f5856f7cffbb41c771892450"
    },
    "createBytecode": {
      "id": "0x472f58c5b747587972f2450163245a25f9bd6e1a42da39a04b385a248bd71b82"
    },
    "contract": {
      "id": "0x9d80ee76ecb5ae7aa22544c2829dc725b92b2c8f24876f45badbc45b152fcfe2"
    }
  }
}