{
  "contractName": "Stake",
  "abi": [
    {
      "inputs": [
        {
          "internalType": "address",
          "name": "_usdcTokenAddress",
          "type": "address"
        }
      ],
      "stateMutability": "nonpayable",
      "type": "constructor"
    },
    {
      "anonymous": false,
      "inputs": [
        {
          "indexed": true,
          "internalType": "bytes32",
          "name": "id",
          "type": "bytes32"
        }
      ],
      "name": "ChainlinkCancelled",
      "type": "event"
    },
    {
      "anonymous": false,
      "inputs": [
        {
          "indexed": true,
          "internalType": "bytes32",
          "name": "id",
          "type": "bytes32"
        }
      ],
      "name": "ChainlinkFulfilled",
      "type": "event"
    },
    {
      "anonymous": false,
      "inputs": [
        {
          "indexed": true,
          "internalType": "bytes32",
          "name": "id",
          "type": "bytes32"
        }
      ],
      "name": "ChainlinkRequested",
      "type": "event"
    },
    {
      "anonymous": false,
      "inputs": [
        {
          "indexed": true,
          "internalType": "address",
          "name": "previousOwner",
          "type": "address"
        },
        {
          "indexed": true,
          "internalType": "address",
          "name": "newOwner",
          "type": "address"
        }
      ],
      "name": "OwnershipTransferred",
      "type": "event"
    },
    {
      "inputs": [
        {
          "internalType": "address",
          "name": "",
          "type": "address"
        }
      ],
      "name": "addressToUnlockedData",
      "outputs": [
        {
          "internalType": "uint256",
          "name": "unlockedBalance",
          "type": "uint256"
        }
      ],
      "stateMutability": "view",
      "type": "function"
    },
    {
      "inputs": [
        {
          "internalType": "address",
          "name": "",
          "type": "address"
        },
        {
          "internalType": "uint256",
          "name": "",
          "type": "uint256"
        }
      ],
      "name": "entriesForUser",
      "outputs": [
        {
          "internalType": "uint256",
          "name": "",
          "type": "uint256"
        }
      ],
      "stateMutability": "view",
      "type": "function"
    },
    {
      "inputs": [],
      "name": "owner",
      "outputs": [
        {
          "internalType": "address",
          "name": "",
          "type": "address"
        }
      ],
      "stateMutability": "view",
      "type": "function"
    },
    {
      "inputs": [],
      "name": "renounceOwnership",
      "outputs": [],
      "stateMutability": "nonpayable",
      "type": "function"
    },
    {
      "inputs": [
        {
          "internalType": "uint256",
          "name": "",
          "type": "uint256"
        }
      ],
      "name": "stakeers",
      "outputs": [
        {
          "internalType": "address",
          "name": "",
          "type": "address"
        }
      ],
      "stateMutability": "view",
      "type": "function"
    },
    {
      "inputs": [
        {
          "internalType": "address",
          "name": "",
          "type": "address"
        },
        {
          "internalType": "address",
          "name": "",
          "type": "address"
        }
      ],
      "name": "stakeingBalance",
      "outputs": [
        {
          "internalType": "uint256",
          "name": "",
          "type": "uint256"
        }
      ],
      "stateMutability": "view",
      "type": "function"
    },
    {
      "inputs": [],
      "name": "timeNow",
      "outputs": [
        {
          "internalType": "uint256",
          "name": "",
          "type": "uint256"
        }
      ],
      "stateMutability": "view",
      "type": "function"
    },
    {
      "inputs": [
        {
          "internalType": "address",
          "name": "",
          "type": "address"
        }
      ],
      "name": "tokenPriceFeedMapping",
      "outputs": [
        {
          "internalType": "address",
          "name": "",
          "type": "address"
        }
      ],
      "stateMutability": "view",
      "type": "function"
    },
    {
      "inputs": [
        {
          "internalType": "address",
          "name": "newOwner",
          "type": "address"
        }
      ],
      "name": "transferOwnership",
      "outputs": [],
      "stateMutability": "nonpayable",
      "type": "function"
    },
    {
      "inputs": [
        {
          "internalType": "address",
          "name": "",
          "type": "address"
        }
      ],
      "name": "uniqueTokensLent",
      "outputs": [
        {
          "internalType": "uint256",
          "name": "",
          "type": "uint256"
        }
      ],
      "stateMutability": "view",
      "type": "function"
    },
    {
      "inputs": [],
      "name": "usdcToken",
      "outputs": [
        {
          "internalType": "contract IERC20",
          "name": "",
          "type": "address"
        }
      ],
      "stateMutability": "view",
      "type": "function"
    },
    {
      "inputs": [
        {
          "internalType": "address",
          "name": "",
          "type": "address"
        },
        {
          "internalType": "uint256",
          "name": "",
          "type": "uint256"
        }
      ],
      "name": "userLockedTimeMapping",
      "outputs": [
        {
          "internalType": "uint256",
          "name": "",
          "type": "uint256"
        }
      ],
      "stateMutability": "view",
      "type": "function"
    },
    {
      "inputs": [
        {
          "internalType": "address",
          "name": "token",
          "type": "address"
        }
      ],
      "name": "addAllowedTokens",
      "outputs": [],
      "stateMutability": "nonpayable",
      "type": "function"
    },
    {
      "inputs": [
        {
          "internalType": "address",
          "name": "token",
          "type": "address"
        },
        {
          "internalType": "address",
          "name": "priceFeed",
          "type": "address"
        }
      ],
      "name": "setPriceFeedContract",
      "outputs": [],
      "stateMutability": "nonpayable",
      "type": "function"
    },
    {
      "inputs": [
        {
          "internalType": "uint256",
          "name": "_amount",
          "type": "uint256"
        },
        {
          "internalType": "address",
          "name": "token",
          "type": "address"
        },
        {
          "internalType": "uint256",
          "name": "numberOfDays",
          "type": "uint256"
        }
      ],
      "name": "stakeTokens",
      "outputs": [],
      "stateMutability": "nonpayable",
      "type": "function"
    },
    {
      "inputs": [],
      "name": "getUnlockedTokens",
      "outputs": [
        {
          "components": [
            {
              "internalType": "uint256",
              "name": "unlockedBalance",
              "type": "uint256"
            },
            {
              "internalType": "uint256[]",
              "name": "unlockedAmountList",
              "type": "uint256[]"
            },
            {
              "internalType": "uint256[]",
              "name": "unlockedIndexList",
              "type": "uint256[]"
            }
          ],
          "internalType": "struct Stake.unlockedData",
          "name": "",
          "type": "tuple"
        }
      ],
      "stateMutability": "nonpayable",
      "type": "function"
    },
    {
      "inputs": [],
      "name": "getWithdrawbleTokens",
      "outputs": [
        {
          "internalType": "uint256",
          "name": "",
          "type": "uint256"
        }
      ],
      "stateMutability": "view",
      "type": "function"
    },
    {
      "inputs": [
        {
          "internalType": "uint256",
          "name": "_amount",
          "type": "uint256"
        },
        {
          "internalType": "address",
          "name": "token",
          "type": "address"
        }
      ],
      "name": "withdrawTokens",
      "outputs": [],
      "stateMutability": "nonpayable",
      "type": "function"
    },
    {
      "inputs": [
        {
          "internalType": "uint256",
          "name": "_amount",
          "type": "uint256"
        },
        {
          "internalType": "uint256",
          "name": "index",
          "type": "uint256"
        }
      ],
      "name": "deductAmount",
      "outputs": [],
      "stateMutability": "nonpayable",
      "type": "function"
    },
    {
      "inputs": [
        {
          "internalType": "address",
          "name": "user",
          "type": "address"
        },
        {
          "internalType": "address",
          "name": "token",
          "type": "address"
        }
      ],
      "name": "getUserTokenValue",
      "outputs": [
        {
          "internalType": "uint256",
          "name": "",
          "type": "uint256"
        }
      ],
      "stateMutability": "view",
      "type": "function"
    },
    {
      "inputs": [
        {
          "internalType": "address",
          "name": "user",
          "type": "address"
        }
      ],
      "name": "getUserTotalValue",
      "outputs": [
        {
          "internalType": "uint256",
          "name": "",
          "type": "uint256"
        }
      ],
      "stateMutability": "view",
      "type": "function"
    },
    {
      "inputs": [
        {
          "internalType": "address",
          "name": "token",
          "type": "address"
        }
      ],
      "name": "tokenIsAllowed",
      "outputs": [
        {
          "internalType": "bool",
          "name": "",
          "type": "bool"
        }
      ],
      "stateMutability": "view",
      "type": "function"
    },
    {
      "inputs": [
        {
          "internalType": "address",
          "name": "user",
          "type": "address"
        },
        {
          "internalType": "address",
          "name": "token",
          "type": "address"
        }
      ],
      "name": "getUserStakeingBalanceEthValue",
      "outputs": [
        {
          "internalType": "uint256",
          "name": "",
          "type": "uint256"
        }
      ],
      "stateMutability": "view",
      "type": "function"
    },
    {
      "inputs": [
        {
          "internalType": "address",
          "name": "token",
          "type": "address"
        }
      ],
      "name": "getTokenEthPrice",
      "outputs": [
        {
          "internalType": "uint256",
          "name": "",
          "type": "uint256"
        }
      ],
      "stateMutability": "view",
      "type": "function"
    },
    {
      "inputs": [],
      "name": "issueTokens",
      "outputs": [],
      "stateMutability": "nonpayable",
      "type": "function"
    }
  ],
  "bytecode": "0x608060405260016004553480156200001657600080fd5b5060405162002be738038062002be783398181016040528101906200003c9190620001dc565b6200005c62000050620000a460201b60201c565b620000ac60201b60201c565b80600f60006101000a81548173ffffffffffffffffffffffffffffffffffffffff021916908373ffffffffffffffffffffffffffffffffffffffff160217905550506200020e565b600033905090565b6000600660009054906101000a900473ffffffffffffffffffffffffffffffffffffffff16905081600660006101000a81548173ffffffffffffffffffffffffffffffffffffffff021916908373ffffffffffffffffffffffffffffffffffffffff1602179055508173ffffffffffffffffffffffffffffffffffffffff168173ffffffffffffffffffffffffffffffffffffffff167f8be0079c531659141344cd1fd0a4f28419497f9722a3daafe3b4186f6b6457e060405160405180910390a35050565b600080fd5b600073ffffffffffffffffffffffffffffffffffffffff82169050919050565b6000620001a48262000177565b9050919050565b620001b68162000197565b8114620001c257600080fd5b50565b600081519050620001d681620001ab565b92915050565b600060208284031215620001f557620001f462000172565b5b60006200020584828501620001c5565b91505092915050565b6129c9806200021e6000396000f3fe608060405234801561001057600080fd5b50600436106101735760003560e01c806360ab5852116100de578063c627feb211610097578063dd5b846711610071578063dd5b846714610470578063df00018d146104a0578063e74988d8146104d0578063f2fde38b146104ee57610173565b8063c627feb214610406578063cec534d614610436578063d95660be1461045257610173565b806360ab58521461036c578063715018a6146103765780638285d28e14610380578063877dd39d1461039c5780638da5cb5b146103b8578063af3f5e22146103d657610173565b80633572e00d116101305780633572e00d14610272578063398d92bb146102a257806339a695ea146102be5780633d668248146102ee578063468178211461031e57806357ec516c1461034e57610173565b806311eac85514610178578063171e44ea1461019657806326d2ad5a146101b257806327927b3e146101e2578063352296eb146102125780633560622414610242575b600080fd5b61018061050a565b60405161018d9190611f6c565b60405180910390f35b6101b060048036038101906101ab9190611fca565b610530565b005b6101cc60048036038101906101c7919061202d565b610612565b6040516101d9919061207c565b60405180910390f35b6101fc60048036038101906101f79190611fca565b610643565b60405161020991906120a6565b60405180910390f35b61022c600480360381019061022791906120c1565b610676565b60405161023991906120a6565b60405180910390f35b61025c6004803603810190610257919061202d565b6106b5565b604051610269919061207c565b60405180910390f35b61028c600480360381019061028791906120ee565b6106da565b604051610299919061207c565b60405180910390f35b6102bc60048036038101906102b7919061212e565b610761565b005b6102d860048036038101906102d39190611fca565b610b6d565b6040516102e5919061207c565b60405180910390f35b610308600480360381019061030391906120ee565b610b8b565b604051610315919061207c565b60405180910390f35b61033860048036038101906103339190611fca565b610c88565b604051610345919061207c565b60405180910390f35b610356610ca0565b604051610363919061207c565b60405180910390f35b610374610e31565b005b61037e610fc0565b005b61039a6004803603810190610395919061216e565b611048565b005b6103b660048036038101906103b191906120ee565b611098565b005b6103c0611196565b6040516103cd91906120a6565b60405180910390f35b6103f060048036038101906103eb9190611fca565b6111c0565b6040516103fd919061207c565b60405180910390f35b610420600480360381019061041b91906120ee565b611292565b60405161042d919061207c565b60405180910390f35b610450600480360381019061044b91906121ae565b6112b7565b005b61045a6116cb565b604051610467919061207c565b60405180910390f35b61048a60048036038101906104859190611fca565b6116d1565b604051610497919061221c565b60405180910390f35b6104ba60048036038101906104b59190611fca565b611780565b6040516104c7919061207c565b60405180910390f35b6104d861187a565b6040516104e5919061234c565b60405180910390f35b61050860048036038101906105039190611fca565b611b84565b005b600f60009054906101000a900473ffffffffffffffffffffffffffffffffffffffff1681565b610538611c7c565b73ffffffffffffffffffffffffffffffffffffffff16610556611196565b73ffffffffffffffffffffffffffffffffffffffff16146105ac576040517f08c379a00000000000000000000000000000000000000000000000000000000081526004016105a3906123cb565b60405180910390fd5b600c819080600181540180825580915050600190039060005260206000200160009091909190916101000a81548173ffffffffffffffffffffffffffffffffffffffff021916908373ffffffffffffffffffffffffffffffffffffffff16021790555050565b6010602052816000526040600020818154811061062e57600080fd5b90600052602060002001600091509150505481565b600a6020528060005260406000206000915054906101000a900473ffffffffffffffffffffffffffffffffffffffff1681565b6007818154811061068657600080fd5b906000526020600020016000915054906101000a900473ffffffffffffffffffffffffffffffffffffffff1681565b600b602052816000526040600020602052806000526040600020600091509150505481565b6000600860008373ffffffffffffffffffffffffffffffffffffffff1673ffffffffffffffffffffffffffffffffffffffff16815260200190815260200160002060008473ffffffffffffffffffffffffffffffffffffffff1673ffffffffffffffffffffffffffffffffffffffff16815260200190815260200160002054905092915050565b6000600860008373ffffffffffffffffffffffffffffffffffffffff1673ffffffffffffffffffffffffffffffffffffffff16815260200190815260200160002060003373ffffffffffffffffffffffffffffffffffffffff1673ffffffffffffffffffffffffffffffffffffffff16815260200190815260200160002054905060006107ec61187a565b90506000816000015111610835576040517f08c379a000000000000000000000000000000000000000000000000000000000815260040161082c90612437565b60405180910390fd5b838160000151101561087c576040517f08c379a0000000000000000000000000000000000000000000000000000000008152600401610873906124c9565b60405180910390fd5b8273ffffffffffffffffffffffffffffffffffffffff1663a9059cbb33866040518363ffffffff1660e01b81526004016108b79291906124e9565b6020604051808303816000875af11580156108d6573d6000803e3d6000fd5b505050506040513d601f19601f820116820180604052508101906108fa919061253e565b508382610907919061259a565b600860008573ffffffffffffffffffffffffffffffffffffffff1673ffffffffffffffffffffffffffffffffffffffff16815260200190815260200160002060003373ffffffffffffffffffffffffffffffffffffffff1673ffffffffffffffffffffffffffffffffffffffff168152602001908152602001600020819055506000600860008573ffffffffffffffffffffffffffffffffffffffff1673ffffffffffffffffffffffffffffffffffffffff16815260200190815260200160002060003373ffffffffffffffffffffffffffffffffffffffff1673ffffffffffffffffffffffffffffffffffffffff168152602001908152602001600020541415610a9c576001600960003373ffffffffffffffffffffffffffffffffffffffff1673ffffffffffffffffffffffffffffffffffffffff16815260200190815260200160002054610a58919061259a565b600960003373ffffffffffffffffffffffffffffffffffffffff1673ffffffffffffffffffffffffffffffffffffffff168152602001908152602001600020819055505b60005b816020015151811015610b66578482602001518281518110610ac457610ac36125ce565b5b602002602001015110610afe57610af98583604001518381518110610aec57610aeb6125ce565b5b6020026020010151611048565b610b53565b610b268583604001518381518110610b1957610b186125ce565b5b6020026020010151611048565b81604001518181518110610b3d57610b3c6125ce565b5b602002602001015185610b50919061259a565b94505b8080610b5e906125fd565b915050610a9f565b5050505050565b600e6020528060005260406000206000915090508060000154905081565b600080600960008573ffffffffffffffffffffffffffffffffffffffff1673ffffffffffffffffffffffffffffffffffffffff1681526020019081526020016000205411610bdc5760009050610c82565b670de0b6b3a7640000610bee83611780565b600860008573ffffffffffffffffffffffffffffffffffffffff1673ffffffffffffffffffffffffffffffffffffffff16815260200190815260200160002060008673ffffffffffffffffffffffffffffffffffffffff1673ffffffffffffffffffffffffffffffffffffffff16815260200190815260200160002054610c759190612646565b610c7f91906126cf565b90505b92915050565b60096020528060005260406000206000915090505481565b6000806000905060005b601060003373ffffffffffffffffffffffffffffffffffffffff1673ffffffffffffffffffffffffffffffffffffffff16815260200190815260200160002080549050811015610e29576000601060003373ffffffffffffffffffffffffffffffffffffffff1673ffffffffffffffffffffffffffffffffffffffff1681526020019081526020016000208281548110610d4757610d466125ce565b5b9060005260206000200154905060006013600183610d65919061259a565b81548110610d7657610d756125ce565b5b90600052602060002001549050804210158015610dd65750600015156016600184610da1919061259a565b81548110610db257610db16125ce565b5b90600052602060002090602091828204019190069054906101000a900460ff161515145b15610e14576012600183610dea919061259a565b81548110610dfb57610dfa6125ce565b5b906000526020600020015484610e119190612700565b93505b50508080610e21906125fd565b915050610caa565b508091505090565b610e39611c7c565b73ffffffffffffffffffffffffffffffffffffffff16610e57611196565b73ffffffffffffffffffffffffffffffffffffffff1614610ead576040517f08c379a0000000000000000000000000000000000000000000000000000000008152600401610ea4906123cb565b60405180910390fd5b60005b600780549050811015610fbd57600060078281548110610ed357610ed26125ce565b5b9060005260206000200160009054906101000a900473ffffffffffffffffffffffffffffffffffffffff169050600f60009054906101000a900473ffffffffffffffffffffffffffffffffffffffff1673ffffffffffffffffffffffffffffffffffffffff1663a9059cbb82610f48846111c0565b6040518363ffffffff1660e01b8152600401610f659291906124e9565b6020604051808303816000875af1158015610f84573d6000803e3d6000fd5b505050506040513d601f19601f82011682018060405250810190610fa8919061253e565b50508080610fb5906125fd565b915050610eb0565b50565b610fc8611c7c565b73ffffffffffffffffffffffffffffffffffffffff16610fe6611196565b73ffffffffffffffffffffffffffffffffffffffff161461103c576040517f08c379a0000000000000000000000000000000000000000000000000000000008152600401611033906123cb565b60405180910390fd5b6110466000611c84565b565b816012828154811061105d5761105c6125ce565b5b9060005260206000200154611072919061259a565b60128281548110611086576110856125ce565b5b90600052602060002001819055505050565b6110a0611c7c565b73ffffffffffffffffffffffffffffffffffffffff166110be611196565b73ffffffffffffffffffffffffffffffffffffffff1614611114576040517f08c379a000000000000000000000000000000000000000000000000000000000815260040161110b906123cb565b60405180910390fd5b80600a60008473ffffffffffffffffffffffffffffffffffffffff1673ffffffffffffffffffffffffffffffffffffffff16815260200190815260200160002060006101000a81548173ffffffffffffffffffffffffffffffffffffffff021916908373ffffffffffffffffffffffffffffffffffffffff1602179055505050565b6000600660009054906101000a900473ffffffffffffffffffffffffffffffffffffffff16905090565b600080600090506000600960008573ffffffffffffffffffffffffffffffffffffffff1673ffffffffffffffffffffffffffffffffffffffff1681526020019081526020016000205411156112895760005b600c805490508110156112875761126784600c8381548110611237576112366125ce565b5b9060005260206000200160009054906101000a900473ffffffffffffffffffffffffffffffffffffffff16610b8b565b826112729190612700565b9150808061127f906125fd565b915050611212565b505b80915050919050565b6008602052816000526040600020602052806000526040600020600091509150505481565b600083116112fa576040517f08c379a00000000000000000000000000000000000000000000000000000000081526004016112f1906127a2565b60405180910390fd5b611303826116d1565b156116c6576113123383611d4a565b8173ffffffffffffffffffffffffffffffffffffffff166323b872dd3330866040518463ffffffff1660e01b815260040161134f939291906127c2565b6020604051808303816000875af115801561136e573d6000803e3d6000fd5b505050506040513d601f19601f82011682018060405250810190611392919061253e565b5082600860008473ffffffffffffffffffffffffffffffffffffffff1673ffffffffffffffffffffffffffffffffffffffff16815260200190815260200160002060003373ffffffffffffffffffffffffffffffffffffffff1673ffffffffffffffffffffffffffffffffffffffff1681526020019081526020016000205461141b9190612700565b600860008473ffffffffffffffffffffffffffffffffffffffff1673ffffffffffffffffffffffffffffffffffffffff16815260200190815260200160002060003373ffffffffffffffffffffffffffffffffffffffff1673ffffffffffffffffffffffffffffffffffffffff168152602001908152602001600020819055506011339080600181540180825580915050600190039060005260206000200160009091909190916101000a81548173ffffffffffffffffffffffffffffffffffffffff021916908373ffffffffffffffffffffffffffffffffffffffff1602179055506012839080600181540180825580915050600190039060005260206000200160009091909190915055601362015180826115389190612646565b426115439190612700565b90806001815401808255809150506001900390600052602060002001600090919091909150556016600090806001815401808255809150506001900390600052602060002090602091828204019190069091909190916101000a81548160ff021916908315150217905550601060003373ffffffffffffffffffffffffffffffffffffffff1673ffffffffffffffffffffffffffffffffffffffff16815260200190815260200160002060118054905090806001815401808255809150506001900390600052602060002001600090919091909150556001600960003373ffffffffffffffffffffffffffffffffffffffff1673ffffffffffffffffffffffffffffffffffffffff1681526020019081526020016000205414156116c5576007339080600181540180825580915050600190039060005260206000200160009091909190916101000a81548173ffffffffffffffffffffffffffffffffffffffff021916908373ffffffffffffffffffffffffffffffffffffffff1602179055505b5b505050565b600d5481565b600080600090505b600c80549050811015611775578273ffffffffffffffffffffffffffffffffffffffff16600c8281548110611711576117106125ce565b5b9060005260206000200160009054906101000a900473ffffffffffffffffffffffffffffffffffffffff1673ffffffffffffffffffffffffffffffffffffffff16141561176257600191505061177b565b808061176d906125fd565b9150506116d9565b50600090505b919050565b600080600a60008473ffffffffffffffffffffffffffffffffffffffff1673ffffffffffffffffffffffffffffffffffffffff16815260200190815260200160002060009054906101000a900473ffffffffffffffffffffffffffffffffffffffff169050600081905060008060008060008573ffffffffffffffffffffffffffffffffffffffff1663feaf968c6040518163ffffffff1660e01b815260040160a060405180830381865afa15801561183d573d6000803e3d6000fd5b505050506040513d601f19601f820116820180604052508101906118619190612886565b9450945094509450945083975050505050505050919050565b611882611e62565b60006060806014908051906020019061189c929190611e83565b50606080601590805190602001906118b5929190611e83565b5060005b601060003373ffffffffffffffffffffffffffffffffffffffff1673ffffffffffffffffffffffffffffffffffffffff16815260200190815260200160002080549050811015611ac0576000601060003373ffffffffffffffffffffffffffffffffffffffff1673ffffffffffffffffffffffffffffffffffffffff1681526020019081526020016000208281548110611956576119556125ce565b5b9060005260206000200154905060006013600183611974919061259a565b81548110611985576119846125ce565b5b906000526020600020015490508042101580156119e557506000151560166001846119b0919061259a565b815481106119c1576119c06125ce565b5b90600052602060002090602091828204019190069054906101000a900460ff161515145b15611aab5760126001836119f9919061259a565b81548110611a0a57611a096125ce565b5b906000526020600020015486611a209190612700565b95506014600183611a31919061259a565b908060018154018082558091505060019003906000526020600020016000909190919091505560156012600184611a68919061259a565b81548110611a7957611a786125ce565b5b906000526020600020015490806001815401808255809150506001900390600052602060002001600090919091909150555b50508080611ab8906125fd565b9150506118b9565b5060405180606001604052808481526020016015805480602002602001604051908101604052809291908181526020018280548015611b1e57602002820191906000526020600020905b815481526020019060010190808311611b0a575b505050505081526020016014805480602002602001604051908101604052809291908181526020018280548015611b7457602002820191906000526020600020905b815481526020019060010190808311611b60575b5050505050815250935050505090565b611b8c611c7c565b73ffffffffffffffffffffffffffffffffffffffff16611baa611196565b73ffffffffffffffffffffffffffffffffffffffff1614611c00576040517f08c379a0000000000000000000000000000000000000000000000000000000008152600401611bf7906123cb565b60405180910390fd5b600073ffffffffffffffffffffffffffffffffffffffff168173ffffffffffffffffffffffffffffffffffffffff161415611c70576040517f08c379a0000000000000000000000000000000000000000000000000000000008152600401611c6790612973565b60405180910390fd5b611c7981611c84565b50565b600033905090565b6000600660009054906101000a900473ffffffffffffffffffffffffffffffffffffffff16905081600660006101000a81548173ffffffffffffffffffffffffffffffffffffffff021916908373ffffffffffffffffffffffffffffffffffffffff1602179055508173ffffffffffffffffffffffffffffffffffffffff168173ffffffffffffffffffffffffffffffffffffffff167f8be0079c531659141344cd1fd0a4f28419497f9722a3daafe3b4186f6b6457e060405160405180910390a35050565b6000600860008373ffffffffffffffffffffffffffffffffffffffff1673ffffffffffffffffffffffffffffffffffffffff16815260200190815260200160002060008473ffffffffffffffffffffffffffffffffffffffff1673ffffffffffffffffffffffffffffffffffffffff1681526020019081526020016000205411611e5e576001600960008473ffffffffffffffffffffffffffffffffffffffff1673ffffffffffffffffffffffffffffffffffffffff16815260200190815260200160002054611e1a9190612700565b600960008473ffffffffffffffffffffffffffffffffffffffff1673ffffffffffffffffffffffffffffffffffffffff168152602001908152602001600020819055505b5050565b60405180606001604052806000815260200160608152602001606081525090565b828054828255906000526020600020908101928215611ebf579160200282015b82811115611ebe578251825591602001919060010190611ea3565b5b509050611ecc9190611ed0565b5090565b5b80821115611ee9576000816000905550600101611ed1565b5090565b600073ffffffffffffffffffffffffffffffffffffffff82169050919050565b6000819050919050565b6000611f32611f2d611f2884611eed565b611f0d565b611eed565b9050919050565b6000611f4482611f17565b9050919050565b6000611f5682611f39565b9050919050565b611f6681611f4b565b82525050565b6000602082019050611f816000830184611f5d565b92915050565b600080fd5b6000611f9782611eed565b9050919050565b611fa781611f8c565b8114611fb257600080fd5b50565b600081359050611fc481611f9e565b92915050565b600060208284031215611fe057611fdf611f87565b5b6000611fee84828501611fb5565b91505092915050565b6000819050919050565b61200a81611ff7565b811461201557600080fd5b50565b60008135905061202781612001565b92915050565b6000806040838503121561204457612043611f87565b5b600061205285828601611fb5565b925050602061206385828601612018565b9150509250929050565b61207681611ff7565b82525050565b6000602082019050612091600083018461206d565b92915050565b6120a081611f8c565b82525050565b60006020820190506120bb6000830184612097565b92915050565b6000602082840312156120d7576120d6611f87565b5b60006120e584828501612018565b91505092915050565b6000806040838503121561210557612104611f87565b5b600061211385828601611fb5565b925050602061212485828601611fb5565b9150509250929050565b6000806040838503121561214557612144611f87565b5b600061215385828601612018565b925050602061216485828601611fb5565b9150509250929050565b6000806040838503121561218557612184611f87565b5b600061219385828601612018565b92505060206121a485828601612018565b9150509250929050565b6000806000606084860312156121c7576121c6611f87565b5b60006121d586828701612018565b93505060206121e686828701611fb5565b92505060406121f786828701612018565b9150509250925092565b60008115159050919050565b61221681612201565b82525050565b6000602082019050612231600083018461220d565b92915050565b61224081611ff7565b82525050565b600081519050919050565b600082825260208201905092915050565b6000819050602082019050919050565b600061227e8383612237565b60208301905092915050565b6000602082019050919050565b60006122a282612246565b6122ac8185612251565b93506122b783612262565b8060005b838110156122e85781516122cf8882612272565b97506122da8361228a565b9250506001810190506122bb565b5085935050505092915050565b600060608301600083015161230d6000860182612237565b50602083015184820360208601526123258282612297565b9150506040830151848203604086015261233f8282612297565b9150508091505092915050565b6000602082019050818103600083015261236681846122f5565b905092915050565b600082825260208201905092915050565b7f4f776e61626c653a2063616c6c6572206973206e6f7420746865206f776e6572600082015250565b60006123b560208361236e565b91506123c08261237f565b602082019050919050565b600060208201905081810360008301526123e4816123a8565b9050919050565b7f7374616b65696e672062616c616e63652063616e6e6f74206265203000000000600082015250565b6000612421601c8361236e565b915061242c826123eb565b602082019050919050565b6000602082019050818103600083015261245081612414565b9050919050565b7f7769746864726177616c2062616c616e63652063616e6e6f74206265206c657360008201527f73207468616e207374616b65696e672062616c616e6365000000000000000000602082015250565b60006124b360378361236e565b91506124be82612457565b604082019050919050565b600060208201905081810360008301526124e2816124a6565b9050919050565b60006040820190506124fe6000830185612097565b61250b602083018461206d565b9392505050565b61251b81612201565b811461252657600080fd5b50565b60008151905061253881612512565b92915050565b60006020828403121561255457612553611f87565b5b600061256284828501612529565b91505092915050565b7f4e487b7100000000000000000000000000000000000000000000000000000000600052601160045260246000fd5b60006125a582611ff7565b91506125b083611ff7565b9250828210156125c3576125c261256b565b5b828203905092915050565b7f4e487b7100000000000000000000000000000000000000000000000000000000600052603260045260246000fd5b600061260882611ff7565b91507fffffffffffffffffffffffffffffffffffffffffffffffffffffffffffffffff82141561263b5761263a61256b565b5b600182019050919050565b600061265182611ff7565b915061265c83611ff7565b9250817fffffffffffffffffffffffffffffffffffffffffffffffffffffffffffffffff04831182151516156126955761269461256b565b5b828202905092915050565b7f4e487b7100000000000000000000000000000000000000000000000000000000600052601260045260246000fd5b60006126da82611ff7565b91506126e583611ff7565b9250826126f5576126f46126a0565b5b828204905092915050565b600061270b82611ff7565b915061271683611ff7565b9250827fffffffffffffffffffffffffffffffffffffffffffffffffffffffffffffffff0382111561274b5761274a61256b565b5b828201905092915050565b7f616d6f756e742063616e6e6f7420626520300000000000000000000000000000600082015250565b600061278c60128361236e565b915061279782612756565b602082019050919050565b600060208201905081810360008301526127bb8161277f565b9050919050565b60006060820190506127d76000830186612097565b6127e46020830185612097565b6127f1604083018461206d565b949350505050565b600069ffffffffffffffffffff82169050919050565b612818816127f9565b811461282357600080fd5b50565b6000815190506128358161280f565b92915050565b6000819050919050565b61284e8161283b565b811461285957600080fd5b50565b60008151905061286b81612845565b92915050565b60008151905061288081612001565b92915050565b600080600080600060a086880312156128a2576128a1611f87565b5b60006128b088828901612826565b95505060206128c18882890161285c565b94505060406128d288828901612871565b93505060606128e388828901612871565b92505060806128f488828901612826565b9150509295509295909350565b7f4f776e61626c653a206e6577206f776e657220697320746865207a65726f206160008201527f6464726573730000000000000000000000000000000000000000000000000000602082015250565b600061295d60268361236e565b915061296882612901565b604082019050919050565b6000602082019050818103600083015261298c81612950565b905091905056fea264697066735822122020a646a5bf331cedd0e5cc87327aeaf7543e7eaa33ab1cdf0e640888030a5ba264736f6c634300080a0033",
  "immutableReferences": {},
  "source": "// SPDX-License-Identifier: MIT\npragma solidity ^0.8.0;\nimport \"@chainlink/contracts/src/v0.8/interfaces/AggregatorV3Interface.sol\";\nimport \"@chainlink/contracts/src/v0.8/ChainlinkClient.sol\";\nimport \"@openzeppelin/contracts/token/ERC20/IERC20.sol\";\nimport \"@openzeppelin/contracts/access/Ownable.sol\";\n\ncontract Stake is ChainlinkClient, Ownable {\n    address[] public stakeers;\n\n    mapping(address => mapping(address => uint256)) public stakeingBalance;\n    mapping(address => uint256) public uniqueTokensLent;\n    mapping(address => address) public tokenPriceFeedMapping;\n    mapping(address => mapping(uint256 => uint256)) public userLockedTimeMapping;\n    address[] allowedTokens;\n    uint256 public timeNow;\n    mapping(address => unlockedData) public addressToUnlockedData;\n\n\n    IERC20 public usdcToken;\n\n    mapping(address => uint256[]) public entriesForUser;\n    address[] userAddress;\n    uint256[] userAmount;\n    uint256[] lockedTime;\n    uint256[] lockedAmountIndexList;\n    uint256[] lockedAmountList;\n    bool[] claimed;\n\n    struct unlockedData { \n        uint256 unlockedBalance;\n        uint256[] unlockedAmountList;\n        uint256[] unlockedIndexList;\n    }\n\n    constructor(address _usdcTokenAddress) {\n        usdcToken = IERC20(_usdcTokenAddress);\n    }\n\n    function addAllowedTokens(address token) public onlyOwner {\n        allowedTokens.push(token);\n    }\n\n    function setPriceFeedContract(address token, address priceFeed) public onlyOwner {\n        tokenPriceFeedMapping[token] = priceFeed;\n    }\n\n    function stakeTokens(uint256 _amount, address token, uint256 numberOfDays) public {\n        require(_amount > 0, \"amount cannot be 0\");\n        if (tokenIsAllowed(token)) {\n            updateUniqueTokensLent(msg.sender, token);\n            IERC20(token).transferFrom(msg.sender, address(this), _amount);\n            stakeingBalance[token][msg.sender] =\n                stakeingBalance[token][msg.sender] +\n                _amount;\n            userAddress.push(msg.sender);\n            userAmount.push(_amount);\n            lockedTime.push(block.timestamp + (numberOfDays * 1 days));\n            claimed.push(false);\n            entriesForUser[msg.sender].push(userAddress.length);\n            if (uniqueTokensLent[msg.sender] == 1) {\n                stakeers.push(msg.sender);\n            }\n        }\n    }\n\n    function getUnlockedTokens() public returns(unlockedData memory) {\n        uint256 unlockedValue = 0;\n        uint256[] memory tempList1;\n        lockedAmountIndexList = tempList1;\n        uint256[] memory tempList2;\n        lockedAmountList = tempList2;\n        for (\n                uint256 index = 0;\n                index < entriesForUser[msg.sender].length;\n                index++\n            ) {\n                uint256 lookupIndex = entriesForUser[msg.sender][index];\n                uint256 deadline = lockedTime[lookupIndex - 1];\n                if (block.timestamp >= deadline && claimed[lookupIndex - 1] == false){\n                    unlockedValue = unlockedValue + userAmount[lookupIndex - 1];\n                    lockedAmountIndexList.push(lookupIndex - 1);\n                    lockedAmountList.push(userAmount[lookupIndex - 1]);\n                }\n            }\n        return unlockedData(unlockedValue, lockedAmountList, lockedAmountIndexList);\n    }\n\n    function getWithdrawbleTokens() public view returns(uint256) {\n        uint256 unlockedValue = 0;\n        for (\n                uint256 index = 0;\n                index < entriesForUser[msg.sender].length;\n                index++\n            ) {\n                uint256 lookupIndex = entriesForUser[msg.sender][index];\n                uint256 deadline = lockedTime[lookupIndex - 1];\n                if (block.timestamp >= deadline && claimed[lookupIndex - 1] == false){\n                    unlockedValue = unlockedValue + userAmount[lookupIndex - 1];\n                }\n            }\n        return unlockedValue;\n    }\n\n    function withdrawTokens(uint256 _amount, address token) public {\n        uint256 balance = stakeingBalance[token][msg.sender];\n        unlockedData memory UnlockedData = getUnlockedTokens();\n        require(UnlockedData.unlockedBalance > 0, \"stakeing balance cannot be 0\");\n        require(UnlockedData.unlockedBalance >= _amount, \"withdrawal balance cannot be less than stakeing balance\");\n        IERC20(token).transfer(msg.sender, _amount);\n        stakeingBalance[token][msg.sender] = balance - _amount;\n        if(stakeingBalance[token][msg.sender] == 0){\n            uniqueTokensLent[msg.sender] = uniqueTokensLent[msg.sender] - 1;\n        }\n        for (\n                uint256 index = 0;\n                index < UnlockedData.unlockedAmountList.length;\n                index++\n            ){\n                if(UnlockedData.unlockedAmountList[index] >= _amount){\n                    deductAmount(_amount, UnlockedData.unlockedIndexList[index]);\n                }\n                else{\n                    deductAmount(_amount, UnlockedData.unlockedIndexList[index]);\n                    _amount = _amount - UnlockedData.unlockedIndexList[index];\n                }\n            }\n    }\n\n    function deductAmount(uint256 _amount, uint256 index) public {\n        userAmount[index] = userAmount[index] - _amount;\n    }\n\n    function getUserTokenValue(address user, address token) public view returns (uint256) {\n        return stakeingBalance[token][user];\n    }\n\n    function getUserTotalValue(address user) public view returns (uint256) {\n        uint256 totalValue = 0;\n        if (uniqueTokensLent[user] > 0) {\n            for (\n                uint256 allowedTokensIndex = 0;\n                allowedTokensIndex < allowedTokens.length;\n                allowedTokensIndex++\n            ) {\n                totalValue =\n                    totalValue +\n                    getUserStakeingBalanceEthValue(\n                        user,\n                        allowedTokens[allowedTokensIndex]\n                    );\n            }\n        }\n        return totalValue;\n    }\n\n\n    function tokenIsAllowed(address token) public view returns (bool) {\n        for (\n            uint256 allowedTokensIndex = 0;\n            allowedTokensIndex < allowedTokens.length;\n            allowedTokensIndex++\n        ) {\n            if (allowedTokens[allowedTokensIndex] == token) {\n                return true;\n            }\n        }\n        return false;\n    }\n\n    function updateUniqueTokensLent(address user, address token) internal {\n        if (stakeingBalance[token][user] <= 0) {\n            uniqueTokensLent[user] = uniqueTokensLent[user] + 1;\n        }\n    }\n\n    function getUserStakeingBalanceEthValue(address user, address token) public view returns (uint256) {\n        if (uniqueTokensLent[user] <= 0) {\n            return 0;\n        }\n        return\n            (stakeingBalance[token][user] * getTokenEthPrice(token)) / (10**18);\n    }\n\n    function getTokenEthPrice(address token) public view returns (uint256) {\n        address priceFeedAddress = tokenPriceFeedMapping[token];\n        AggregatorV3Interface priceFeed = AggregatorV3Interface(\n            priceFeedAddress\n        );\n        (\n            uint80 roundID,\n            int256 price,\n            uint256 startedAt,\n            uint256 timeStamp,\n            uint80 answeredInRound\n        ) = priceFeed.latestRoundData();\n        return uint256(price);\n    }\n\n    function issueTokens() public onlyOwner {\n        // Issue tokens to all stakeers\n        for (\n            uint256 stakeersIndex = 0;\n            stakeersIndex < stakeers.length;\n            stakeersIndex++\n        ) {\n            address recipient = stakeers[stakeersIndex];\n            usdcToken.transfer(recipient, getUserTotalValue(recipient));\n        }\n    }\n}",
  "sourcePath": "/Users/aayushnaik/Documents/Projects/Hackathons/rupya/contracts/contracts/polygon/core/Stake.sol",
  "compiler": {
    "name": "solc",
    "version": "0.8.10+commit.fc410830.Emscripten.clang"
  },
  "schemaVersion": "3.4.2",
  "updatedAt": "2021-12-15T05:25:51.754Z",
  "devdoc": {
    "kind": "dev",
    "methods": {
      "owner()": {
        "details": "Returns the address of the current owner."
      },
      "renounceOwnership()": {
        "details": "Leaves the contract without owner. It will not be possible to call `onlyOwner` functions anymore. Can only be called by the current owner. NOTE: Renouncing ownership will leave the contract without an owner, thereby removing any functionality that is only available to the owner."
      },
      "transferOwnership(address)": {
        "details": "Transfers ownership of the contract to a new account (`newOwner`). Can only be called by the current owner."
      }
    },
    "version": 1
  },
  "userdoc": {
    "kind": "user",
    "methods": {},
    "version": 1
  },
  "db": {
    "callBytecode": {
      "id": "0xba0f097dc28bf27fdae4e7208df011e3409f5c5f9db8272f998970346686f386"
    },
    "createBytecode": {
      "id": "0x0647cc3b3faa3cfc4cf124c42d0029b4e1421f17b602085ab6220afc4d207ee7"
    },
    "contract": {
      "id": "0x42beadc957d9972ae71478c0e5af8edd78ed09f3fe44f627017f17a845f2b364"
    }
  }
}