{
  "contractName": "User",
  "abi": [
    {
      "inputs": [
        {
          "internalType": "string",
          "name": "ipfsHash",
          "type": "string"
        }
      ],
      "stateMutability": "nonpayable",
      "type": "constructor"
    },
    {
      "anonymous": false,
      "inputs": [
        {
          "indexed": false,
          "internalType": "address",
          "name": "_from",
          "type": "address"
        },
        {
          "indexed": false,
          "internalType": "string",
          "name": "ipfsHash",
          "type": "string"
        }
      ],
      "name": "newUser",
      "type": "event"
    },
    {
      "inputs": [
        {
          "internalType": "address",
          "name": "",
          "type": "address"
        }
      ],
      "name": "addressToBool",
      "outputs": [
        {
          "internalType": "bool",
          "name": "",
          "type": "bool"
        }
      ],
      "stateMutability": "view",
      "type": "function"
    },
    {
      "inputs": [
        {
          "internalType": "string",
          "name": "ipfsHash",
          "type": "string"
        }
      ],
      "name": "createUser",
      "outputs": [
        {
          "internalType": "bool",
          "name": "",
          "type": "bool"
        }
      ],
      "stateMutability": "nonpayable",
      "type": "function"
    },
    {
      "inputs": [],
      "name": "userExists",
      "outputs": [
        {
          "internalType": "bool",
          "name": "",
          "type": "bool"
        }
      ],
      "stateMutability": "view",
      "type": "function"
    },
    {
      "inputs": [],
      "name": "getIndexByAddress",
      "outputs": [
        {
          "internalType": "uint256",
          "name": "",
          "type": "uint256"
        }
      ],
      "stateMutability": "view",
      "type": "function"
    },
    {
      "inputs": [],
      "name": "getIpfsHash",
      "outputs": [
        {
          "internalType": "string",
          "name": "",
          "type": "string"
        }
      ],
      "stateMutability": "view",
      "type": "function"
    }
  ],
  "bytecode": "0x60806040523480156200001157600080fd5b5060405162000d5838038062000d5883398181016040528101906200003791906200032c565b6002339080600181540180825580915050600190039060005260206000200160009091909190916101000a81548173ffffffffffffffffffffffffffffffffffffffff021916908373ffffffffffffffffffffffffffffffffffffffff160217905550600381908060018154018082558091505060019003906000526020600020016000909190919091509080519060200190620000d7929190620000df565b5050620003e2565b828054620000ed90620003ac565b90600052602060002090601f0160209004810192826200011157600085556200015d565b82601f106200012c57805160ff19168380011785556200015d565b828001600101855582156200015d579182015b828111156200015c5782518255916020019190600101906200013f565b5b5090506200016c919062000170565b5090565b5b808211156200018b57600081600090555060010162000171565b5090565b6000604051905090565b600080fd5b600080fd5b600080fd5b600080fd5b6000601f19601f8301169050919050565b7f4e487b7100000000000000000000000000000000000000000000000000000000600052604160045260246000fd5b620001f882620001ad565b810181811067ffffffffffffffff821117156200021a5762000219620001be565b5b80604052505050565b60006200022f6200018f565b90506200023d8282620001ed565b919050565b600067ffffffffffffffff82111562000260576200025f620001be565b5b6200026b82620001ad565b9050602081019050919050565b60005b83811015620002985780820151818401526020810190506200027b565b83811115620002a8576000848401525b50505050565b6000620002c5620002bf8462000242565b62000223565b905082815260208101848484011115620002e457620002e3620001a8565b5b620002f184828562000278565b509392505050565b600082601f830112620003115762000310620001a3565b5b815162000323848260208601620002ae565b91505092915050565b60006020828403121562000345576200034462000199565b5b600082015167ffffffffffffffff8111156200036657620003656200019e565b5b6200037484828501620002f9565b91505092915050565b7f4e487b7100000000000000000000000000000000000000000000000000000000600052602260045260246000fd5b60006002820490506001821680620003c557607f821691505b60208210811415620003dc57620003db6200037d565b5b50919050565b61096680620003f26000396000f3fe608060405234801561001057600080fd5b50600436106100575760003560e01c80631ea2be401461005c578063507ffba51461007a578063694e34cc146100aa578063dc9638c7146100da578063eae6d4da146100f8575b600080fd5b610064610116565b60405161007191906104d5565b60405180910390f35b610094600480360381019061008f919061064a565b61015c565b6040516100a191906106ae565b60405180910390f35b6100c460048036038101906100bf9190610727565b6102ea565b6040516100d191906106ae565b60405180910390f35b6100e261030a565b6040516100ef91906107dc565b60405180910390f35b6101006103c5565b60405161010d91906106ae565b60405180910390f35b60008060003373ffffffffffffffffffffffffffffffffffffffff1673ffffffffffffffffffffffffffffffffffffffff16815260200190815260200160002054905090565b60006002339080600181540180825580915050600190039060005260206000200160009091909190916101000a81548173ffffffffffffffffffffffffffffffffffffffff021916908373ffffffffffffffffffffffffffffffffffffffff1602179055506003829080600181540180825580915050600190039060005260206000200160009091909190915090805190602001906101fc929190610419565b5060018060003373ffffffffffffffffffffffffffffffffffffffff1673ffffffffffffffffffffffffffffffffffffffff16815260200190815260200160002060006101000a81548160ff0219169083151502179055506001600280549050610266919061082d565b6000803373ffffffffffffffffffffffffffffffffffffffff1673ffffffffffffffffffffffffffffffffffffffff168152602001908152602001600020819055507f4d83534e36ded6d5924f881b25f9f4f3a19d78be775e0becc3d5165ea20f696633836040516102d9929190610870565b60405180910390a160019050919050565b60016020528060005260406000206000915054906101000a900460ff1681565b60606000610316610116565b90506003818154811061032c5761032b6108a0565b5b906000526020600020018054610341906108fe565b80601f016020809104026020016040519081016040528092919081815260200182805461036d906108fe565b80156103ba5780601f1061038f576101008083540402835291602001916103ba565b820191906000526020600020905b81548152906001019060200180831161039d57829003601f168201915b505050505091505090565b6000600160003373ffffffffffffffffffffffffffffffffffffffff1673ffffffffffffffffffffffffffffffffffffffff16815260200190815260200160002060009054906101000a900460ff16905090565b828054610425906108fe565b90600052602060002090601f016020900481019282610447576000855561048e565b82601f1061046057805160ff191683800117855561048e565b8280016001018555821561048e579182015b8281111561048d578251825591602001919060010190610472565b5b50905061049b919061049f565b5090565b5b808211156104b85760008160009055506001016104a0565b5090565b6000819050919050565b6104cf816104bc565b82525050565b60006020820190506104ea60008301846104c6565b92915050565b6000604051905090565b600080fd5b600080fd5b600080fd5b600080fd5b6000601f19601f8301169050919050565b7f4e487b7100000000000000000000000000000000000000000000000000000000600052604160045260246000fd5b6105578261050e565b810181811067ffffffffffffffff821117156105765761057561051f565b5b80604052505050565b60006105896104f0565b9050610595828261054e565b919050565b600067ffffffffffffffff8211156105b5576105b461051f565b5b6105be8261050e565b9050602081019050919050565b82818337600083830152505050565b60006105ed6105e88461059a565b61057f565b90508281526020810184848401111561060957610608610509565b5b6106148482856105cb565b509392505050565b600082601f83011261063157610630610504565b5b81356106418482602086016105da565b91505092915050565b6000602082840312156106605761065f6104fa565b5b600082013567ffffffffffffffff81111561067e5761067d6104ff565b5b61068a8482850161061c565b91505092915050565b60008115159050919050565b6106a881610693565b82525050565b60006020820190506106c3600083018461069f565b92915050565b600073ffffffffffffffffffffffffffffffffffffffff82169050919050565b60006106f4826106c9565b9050919050565b610704816106e9565b811461070f57600080fd5b50565b600081359050610721816106fb565b92915050565b60006020828403121561073d5761073c6104fa565b5b600061074b84828501610712565b91505092915050565b600081519050919050565b600082825260208201905092915050565b60005b8381101561078e578082015181840152602081019050610773565b8381111561079d576000848401525b50505050565b60006107ae82610754565b6107b8818561075f565b93506107c8818560208601610770565b6107d18161050e565b840191505092915050565b600060208201905081810360008301526107f681846107a3565b905092915050565b7f4e487b7100000000000000000000000000000000000000000000000000000000600052601160045260246000fd5b6000610838826104bc565b9150610843836104bc565b925082821015610856576108556107fe565b5b828203905092915050565b61086a816106e9565b82525050565b60006040820190506108856000830185610861565b818103602083015261089781846107a3565b90509392505050565b7f4e487b7100000000000000000000000000000000000000000000000000000000600052603260045260246000fd5b7f4e487b7100000000000000000000000000000000000000000000000000000000600052602260045260246000fd5b6000600282049050600182168061091657607f821691505b6020821081141561092a576109296108cf565b5b5091905056fea264697066735822122089be4e36da10c5ed077478f0f7cc08bab901f93e3ee0076db6c1290ad9d201b664736f6c634300080a0033",
  "immutableReferences": {},
  "source": "// SPDX-License-Identifier: MIT\npragma solidity ^0.8.0;\n\ncontract User {\n    mapping(address => uint) private addressToIndex;\n    mapping(address => bool) public addressToBool;\n\n    address[] private addresses;\n    string[] private ipfsHashes;\n\n    event newUser(address _from, string ipfsHash);\n\n    constructor(string memory ipfsHash){\n        addresses.push(msg.sender);\n        ipfsHashes.push(ipfsHash);\n    }\n\n    function createUser(string memory ipfsHash) public returns (bool) {\n        addresses.push(msg.sender);\n        ipfsHashes.push(ipfsHash);\n        addressToBool[msg.sender] = true;\n        addressToIndex[msg.sender] = addresses.length - 1;\n\n        emit newUser(msg.sender, ipfsHash);\n\n        return true;\n    }\n\n    function userExists() public view returns (bool) {\n        return addressToBool[msg.sender];\n    }\n\n    function getIndexByAddress() public view returns(uint) {\n        return addressToIndex[msg.sender];\n    }\n\n    function getIpfsHash() public view returns (string memory) {\n        uint idx = getIndexByAddress();\n        return ipfsHashes[idx];\n    }\n}",
  "sourcePath": "/Users/aayushnaik/Documents/Projects/Hackathons/rupya/contracts/contracts/polygon/core/User.sol",
  "compiler": {
    "name": "solc",
    "version": "0.8.10+commit.fc410830.Emscripten.clang"
  },
  "schemaVersion": "3.4.2",
  "updatedAt": "2021-12-12T07:59:29.321Z",
  "devdoc": {
    "kind": "dev",
    "methods": {},
    "version": 1
  },
  "userdoc": {
    "kind": "user",
    "methods": {},
    "version": 1
  },
  "db": {
    "callBytecode": {
      "id": "0xc895caa30a6d554459d03f431840b11f982aff9e9ce0f5d86c08fbc8b7343395"
    },
    "createBytecode": {
      "id": "0xd063ab5236d4bc40e1ea6ca61d9d6a37f375d40daafae23b24409029cd9f89d1"
    },
    "contract": {
      "id": "0x2ddd853ec219526c17680708db1ba5af8c1fef2e221f767c65920d45c9bed6ff"
    }
  }
}